:020000041000EA
:4000000000400208230100100D00000085010010000000000000000000000000000000000000000000000000000000008101001000000000000000008101001081010010E9
:400040008101001081010010810100108101001081010010810100108101001081010010810100108101001081010010810100108101001081010010810100108101001060
:400080008101001081010010810100108101001081010010810100108101001081010010810100108101001081010010810100108101001081010010810100108101001020
:4000C00010B5064C2378002B07D1054B002B02D0044800E000BF0123237010BDCC330008000000001CD50010084B10B5002B03D00749084800E000BF07480368002B00D17C
:4001000010BD064B002BFBD09847F9E700000000D03300081CD5001068050008000000007047FFF7FDFF72B60F4C104DAC4209DA21686268A368043B02DBC858D050FAE776
:400140000C34F3E70A490B4A0020521A02DD043A8850FCDC084809490860BFF34F8F00F023FA00F08BF8FEE79CF30210B4F30210CC3300082C4600080000000808ED00E0AD
:40018000FEE7FEE700B504207146084202D0EFF3098001E0EFF30880043003F075FBFEE710B52EF0C5FC10BD70B50C00284B984215D004D880235B01984207D047E0254BA0
:4001C00098421AD0244B984224D040E00021002005F072FA2149224801F078FC37E0214C002323700021002005F066FA1E491C4801F06CFC0123636029E002221B4808F0A0
:40020000CEF9184C012525701949154801F05EFC65601CE008000C3005F0B0FBE06814F037FB2389132B12D123681B78DB0707D501220C4B1A720F49094801F047FC06E039
:400240000022084B1A720C49054801F03FFC70BD08400000015000000C500000E0B5001000006640E833000800B600101045000824B6001038B6001050B60010F0B583B026
:4002800062B606F07BF806F035F94C4B1B68586800230222002108F023FE494B01225A6001325A6002325A6006F022F8454806F097F801E02EF03CFC434B1B78022BF9D181
:4002C000424804F0C5FE424B5B68012B0AD13C4C0825A560FA20800003F07AFA656000223B4B5A603B4C0021200004F019F90121200004F02DF90021200004F0A5F9070080
:400300000121200004F0A0F906000221200004F09BF905000321200004F096F900900421200004F091F901903A000021200004F0E5F9071C32000121200004F0DFF9061C9B
:400340002A000221200004F0D9F9051C009A0321200004F0D3F90090019A0421200004F0CDF9041C381C07F041FF02000B001A4808F09CFD301C07F039FF02000B001748CF
:4003800008F094FD281C07F031FF02000B00144808F08CFD009807F029FF02000B00114808F084FD201C07F021FF02000B000E4808F07CFD642003F00BFA84E7240500088A
:4003C00080043240A90100107C450008A1010010E833000800001D41DCB60010ECB60010FCB6001010B7001020B7001010B5002001F0C4FA10BDC04670B56249E0239B00A8
:40040000CB580F2213401A00D0329200525807210A40032A05D0042A06D0002A12D15A4814E05A4A106811E01A00C0329200554952581F210A40112A06D0132A04D0FA20E9
:40044000C00103E0524801E080200002002B36D14C4BB222D2009A5801211140B125ED005A59120F032422405B591B0F1C4207D0444C63591B0F03242340012B02D102E0D3
:40048000012300E00023002B01D0002901D1032A4BD13C4BB022D2009D58AD03AD0B3D495958C904C90C9C58240E01231C40013406F034F86843210006F030F835E0012B4C
:4004C00033D1304BC822D2009A5801251540C024E4001A59120F03210A401B591B0F194207D028490B591B0F03210B40012B02D102E0012300E00023002B01D0002D01D149
:40050000032A12D11F4DC022D200AB587F210B40A958090A1F263140AC58240C3440584305F0FCFF210005F0F9FFE0239B00154AD3581B0903221340D840144C6060164B35
:400540001D692D0AFC32154001351969090E013105F0E4FFA060290005F0E0FF0500E06020610E4BC0180E4905F0D8FF20750D4BE818FA21890005F0D1FFA061C003E061F0
:4005800070BDC0460000264000127A00C000000800366E0184050000000021403F420F0040420F00E703000010B5284803F046FE274CB022D200A3585B005B08A350E02184
:4005C0008900635830208343635080235B04A350204A214BE250A02292010433E250FF221E4BE25003F018FEC0225200A35801218B43A35000F0F6F9FFF7FEFEB0235B0558
:400600005B78002B04D0B0235B055B78DBB200E02123212B03D1124B0022DA605A60114C22008021042000F009FF2000103000F0E3FF0D4B1A685123D35C002B02D00B4863
:4006400001F050F800F034FB10BDC046A4BC00100000264001000200840500008C050000E0002340F43300081445000834B700108023024AD35803201840704700002140E1
:4006800010B504002100034801F0D8F90028F9D010BDC04600006640C2239B00034AD358DB05F9D0D0239B00D058704700006640FEE7C04680221206054B1A60054B064A16
:4006C0001360064A1360064A064B1A607047C04600001D413F00010000031D4144031D4101001180000E1F4130B587B0AA4A116808230B431360A94C03E0012003F082F86D
:40070000013CA54B1B695B0701D4002CF5D1002C01D1A34B00E00023002B02D00520FFF7C7FFA048A021C900435803229343023A134343509C4A116808688823CB58C3186D
:4007400018689A49084018601368186884241B59C01803681B021B0A80256D042B430360106805680359EB1818680140196013683E229A5C002A06D08A48E021890042588E
:40078000753CA24342503E229A5C002A06D08548E021890042583024A24342503E229B5C002B07D07F49E02292008B588020000603438B500021012002F0A0FC002102208D
:4007C00002F09CFC0021032002F098FC0021042002F094FC0021002002F090FC01A8744903000A0032CA32C312CA12C302F0DAFC002802D00420FFF75BFF6A496D4A8B5887
:400800008020000603438B506B4802F087FD002802D00420FFF74CFF624C684BE158684A0A40E250E158674A0A40E250E25880252D062A43E250043BE158634A0A40E250E9
:40084000E158624A0A40802189010A43E250E258802109020A43E2504F4A11685C4B0B401360002003F0BAFC5A4BE2582A43E250E158012291430A43E2506421002003F035
:400880001BF8494B1B683F229A5C052A06D970229A5C01210A405049986842509A6874215B5AD2185168414B0B408C2189010B4353603D4B1B6873229A5C0321914070226F
:4008C0009A5C7220185C140084402143012002400A43802109060A438021C900986842509A6852583F229A5C062A03D900213B4A986881509A6874215B5AD21811682B4B6C
:400900000B40F82149010B431360274B1B687322995C703A8A40110070229A5C7220185C82400A43802109060A438021C900986842509A6852583F229A5C392A06D97022D7
:400940009A5C02210A402649986842509A6874215B5AD2189168154B0B40C42189010B439360114B1A687323D35C032199407023D35C7220105C1C00844021430220034080
:400980000B43802109060B438021C9009068435093685B5807B030BD0000274020A1070002004A000000264014450008FF00FFFF80B70010087F0000400D0300040500003E
:4009C000FEFCFFFFFFFF00FFFFF0FFFFFF8FFFFFFFFCFFFF0C050000140C0000180C0000E40C000070B58EB09621002002F064FF02F03AFF002814D102F026FFC0235B002F
:400A0000424AD358DB0705D41100414A8B585B005B088B503D493E4A8B588020000603438B50012003F072FB3A4A516C3A4B0B40E82189010B435364536C1B0AFF221340F2
:400A40003A2B07D1334A516C344B0B40E82189010B43536401AC34220021200007F0A8FD2F4D22000021280000F02EFA34220021200007F09DFD22000121280000F024FA1C
:400A8000FFF732FE0F22274B1A60274A274B1A6024220021200007F08BFD2100280000F0ADFB234D22002B00143343CB43C243CB43C243CB43C221001E4800F09FFB22003F
:400AC0002B00383323CB23C223CB23C223CB23C22100194800F092FB24220021200007F067FD164BE3602100154800F087FB24220021200007F05CFD3F230193210011482B
:400B000000F07CFBFFF7D6FD0EB070BD000026400C05000000002740FF00FFFFFFC5FFDF0000324000006740070101000002674080B70010800232400003324066660000D6
:400B40008004324000053240C00543425841C0B27047C046214B984230D00ED8402831D004D800281FD010282AD031E080282BD080235B00984229D02AE0194B984229D076
:400B800007D8A0231B0698420DD0164B984212D01EE0154B98420AD0144B984209D0144B984215D101E0002016E0124814E0124812E0124810E0A020C0030DE007480BE0D6
:400BC0000F4809E00F4807E00F4805E0034803E00E4801E0A420C0037047C04606005200010000F0090000A0040000F0050000F0030000F0010052000200520003005200C8
:400C0000010050000200500005005200FF00520070B5124B1A683123D35C002B04D1C421FF310F4802F0FAFD0C4B1D682C00B423EB582A6A944663441B68002B0BDB094B6E
:400C40001868FFF787FF6B6801229A6063689B68002BFBD100E0044870BDC04614450008DCB70010843500080200500010B50D4B1861002805D002230370FD33437000231C
:400C80004380094B1B6850229A5C002A08D051229B5C002B04D04F3A0449002000F0DCFD10BDC0468435000814450008E105000810B502481430FFF7D9FF10BD8435000876
:400CC00070B504000D00FFF73FFF002836D0002D36D0FFF791FB1B4B1B4A1A6000225A609C60DD60194B1B6852329A5C002A1FD01A6884215B58D31819681A68120AFF23CD
:400D000013405A1C0B0E01335343114C5C43114B1868FA21890005F001FC0100200005F0FDFB0D4BC118802040000AF051FC08E00021802040000AF04BFC02E0074800E0F8
:400D4000064870BD843500080001000514450008C0EA2101C4000008482600000600520010B5FFF755FF10BD10B50400FFF7ECFE00283ED0FFF740FBE02252051E4B1A604A
:400D80001E4B1B78002B05D01B4A1368802149000B431360184B5C6000229A60DA60184B1B6854329A5C002A1ED01A6884215B58D31819681A68120AFF2313405A1C0B0ED5
:400DC000013353430F4C5C430F4B1868FA21890005F0A4FB0100200005F0A0FB0B4BC11800200AF0F5FB05E0002100200AF0F0FB00E0074810BDC046843500080B00001644
:400E00001445000860F59000C4000008980800000600520070B504000D00FFF795FE002842D0002D42D0FFF7E7FAC022D204204B1A60204B1B78002B05D01D4A136880217B
:400E400049000B4313601A4B802252005A609C60DD60194B1B68AD3A9A5C002A1FD01A6884215B58D31819681A68120AFF2313405A1C0B0E01335343104C5C43104B1868B7
:400E8000FA21890005F04AFB0100200005F046FBE1239B00C11800200AF09AFB07E0002100200AF095FB02E0064800E0054870BD843500080B00001614450008808D5B00EF
:400EC000C400000806005200F8B54F464646C0B406000D001400002800D16FE1002A00D16EE1072903D94521B84802F097FC2368012B03D94621B54802F090FC0F2362686A
:400F00009A4303D04721B14802F088FC237A1F22934303D04821AD4802F080FCE368032B03D94921A94802F079FC2369012B03D94A21A64802F072FC6369012B03D94B2133
:400F4000A24802F06BFCA369012B03D94C219F4802F064FCE369032B03D94D219B4802F05DFC236A012B03D94E21984802F056FC636A012B03D94F21944802F04FFCA36AEF
:400F8000012B03D95021914802F048FCE36A032B03D951218D4802F041FC236B072B03D952218A4802F03AFC2768072D03D98849884802F033FC012F04D9CA218900854824
:400FC00002F02CFC002F03D10123AB40736002E00123AB40B3606768072D04D9F12189007C4802F01BFC0F233A009A4303D07A49784802F013FCA900784B1A687D23D35C49
:401000009B191A6890460F2291468A40404690430200484607408F4017431F60277A072D04D9A22189006B4802F0F8FB1F233A009A4303D06A49674802F0F0FB674B1A68C5
:401040009369F31ADB0952691B01D318032D0AD81968E8001F22824091431F22174087400F431F600AE02A1F5968D2001F20904081431F20074097400F435F60E768082DB4
:4010800004D9DD21C900534802F0C8FB032F03D95449504802F0C2FB6900504B1A687C23D35C9B191A689046032291468A40404690430200484607408F4017431F602769BC
:4010C000082D03D94849434802F0A8FB012F03D94649404802F0A2FBB36901221100A9408B431740AF401F43B76163699846072D03D93F49374802F091FB4346012B03D9E5
:401100003C49344802F08AFB34487E230268D35C9B191A6801273900A9408C468A43110042463A40AA400A431A606B0010229046984403210B0042469340624613439946E8
:401140007F2203689A5C9446B44463461A684B469A43A3693B40AB401A43E3691940434699400A4363461A6002688023D35CF6183368FF22944693431800236A1F40636A35
:401180005A00022313403B43A26A9100042739400B431F00E36AD900182319403B000B43226B520161460A401343AD00FE2292001540AB4003433360002002E00E4800E017
:4011C0000D480CBC90469946F8BDC0461CB80010270300005CB80010C50300001445000889020000E9060000690600006A060000030400000404000001005A0070B505001A
:401200000C0000285DD000295DD0FF230A689A4303D099212D4802F001FBFF2322699A4303D09A21294802F0F9FAA3685B0D03D09B21264802F0F2FA63685B0A03D09C211A
:40124000224802F0EBFAE3695B0F03D09D211F4802F0E4FA236A5B0F03D09E211B4802F0DDFA1B4A11688B69EB1ADB0949691B01CB18216829607D211068415C6918E06800
:4012800008607E211068415C6918206908607F211068415C6918606908607C211068415C6918A06808606168A961116880228A5CAD18A2692A60E2691A60226A5A6000203D
:4012C00002E0044800E0034870BDC0461CB800101445000801005A0070B504000D000A4B1A68B423D3581B181B68002B0ADA0B0C03D00649064802F091FA2D042D0C6560BB
:40130000002000E0034870BD14450008D50200009CB8001001008A0070B505000C000368002B01DA002300E0084B002B0BD1EA60230C03D00649074802F070FA2404240C6C
:40134000AC60002000E0014870BDC04601008A00BB0200009CB8001070B505000C1E03D19921084802F05AFA074B1A68B423D3585B191B68002B03DAEB682360002000E016
:40138000024870BDDCB800101445000801008A0070B504000D00234B1A683123D35C834236D9002936D00B68DB0635D13123D35C984204D3C421FF311B4802F02FFA194BF5
:4013C0001B681A6AB0215B5A5C431419174E34602B68DA080021686807F0EAF800212000FFF77AFF3468002D03D111490E4802F015FA2A0000212000FFF78EFF00280DD16A
:401400000A4B18680021FFF767FF002808D108E0084806E0074804E0064802E0064800E0054870BD144500089CB800109C3500089303000003018A0001018A0010B5040019
:40144000002A17D1002915D1124B1A683123D35C984204D3C421FF310F4802F0DFF90D4B1B681A6AB0215B5A5C4314190B4B1C6000200EE0002A09D0002909D0074B596061
:401480009A60191D2000FFF783FF02E0044800E0034810BD144500089CB800109C35000803018A00F0B583B00D001C4B1B68DC68236883422DD947097B01C01A012383401C
:4014C0001E00002903D102F070FA019001E000230193124B18680368002B01DA002300E00F4B002B0ED16368BF00DF193B68334203D133433B60002400E00A4C0021FFF7A7
:40150000EBFE00E0084C002D04D1019802F051FA00E0064C200003B0F0BDC0469C35000801008A00020188000301880004018A00F0B583B00D001C4B1B68DC682368834291
:401540002DD947097B01C01A012383401E00002903D102F02AFA019001E000230193124B18680368002B01DA002300E00F4B002B0ED16368BF00DF193B68334203D0B34366
:401580003B60002400E00A4C0021FFF7A5FE00E0084C002D04D1019802F00BFA00E0064C200003B0F0BDC0469C35000801008A00020188000301880004018A000A4B1B681C
:4015C000DA68136883420BD943095901401A0121814052689B009B580B4203D0034802E0034800E0034870479C3500080101880004018A0000018800034B1B68002B01D197
:40160000014B18607047C046A8350008F0B5474680B404000F0090461E002D4B1B68002B03D1B5212B4802F0F9F8294B1B682C2060431C18FF22150035402560330A1340D7
:401640006360360CA660244B1A683123D35C9D4204D3C421FF31214802F0E0F81E4B1A68B023D35A6B43116A8C466344236166683223D35C9E4204D3E021FF31174802F051
:40168000CDF8154B1B681D6A80367601AD196561A668330C04D0FF214900104802F0BEF8330C03D00E490D4802F0B8F83604330C1E43AE604346E36127620023A361069B52
:4016C000002B02D000229B5EA38104BC9046F0BDA83500081CB90010144500089CB80010FF010000F0B58FB0041E03D15221294802F094F86368032B03D95421254802F0F7
:401700008DF8E36A002B03D15821224802F086F8236B002B03D159211E4802F07FF807AA1300210061C961C321C921C302AD290023001433C1CBC1C141CB41C10821535E76
:401740000CAE3380144B1B6836215B5E07998C466344B370089B0D930B9B0A980096A26AE16AFFF753FF2B69E868002200920021FFF74CFF216B300001F0C8FF0023F25E2D
:40178000002A05DB1F231A401E3B9340034A13600FB0F0BD1CB900101445000800E100E0F8B505000F0016001C00002A03D1FD21224802F033F8224B1B68002B03D1FE2180
:4017C0001E4802F02BF81E4B1B682C2128004843181879435918012213004D68AB401B044568AA4015000269002A20D08F69002F1FD11268002A01DA002200E0114A002AE2
:4018000019D132681204120C134333600369DE6001238B614C6204692B0C03D00A490B4801F0FCFF2A04120CA260002004E0084802E0084800E00748F8BDC0461CB90010F3
:40184000A835000801008A00BB0200009CB8001004028A0007028A0070B504000D0016000F4B1B68002B04D1AF2149000D4801F0D5FF0B4B1B682C2060431C18236A002BA4
:4018800004D1B1214900074801F0C8FFE369B34204D9236AB6009D51002000E0024870BDA83500081CB900100A028A0070B582B0040000230193002804D1D221FF312D4864
:4018C00001F0ACFF2369002B04D1E9214900294801F0A4FF6369002B04D1D421FF31254801F09CFF236A002B04D1EA214900214801F094FF6269D5682B0C24D01B041360EB
:40190000136820691C4B1A68B423D358C3181B68002B18DA01A9FFF71FFD00280ED1019803681E0CFF221340E269934207D29B00226AD358002B02D0984700E0002631007A
:401940002069FFF7C9FC2D042D0C0FD063691D601B68636A002B03D098470023636203E0A36A002B00D098470023A36163691B6802B070BD1CB900101445000810B504004E
:40198000084B1B68002B04D1B221FF31064801F045FF044B1B682C2060431818FFF786FF10BDC046A83500081CB9001010B50400094B1B689B6CC340DB0703D4BE21074831
:4019C00001F02CFF044B1B681B691034A402E3580F20184010BDC046144500085CB9001030B5C0239B00C3580F242340072B07D900230FE0D024A4000459CC54013300E00F
:401A000000239342F6D307E05C00D025AD0045590D5301339342F7D330BDC04610B51400C2239B00C358DB05DB0D9A4200D31C002200FFF7D5FF200010BDC04603681B05CB
:401A400001D5802200E0402282239B00C358DB05DB0D934204D090239B00C150012000E00020704730B580239B00C3580F242340072B07D900230FE0CD5C9024A4000551DA
:401A8000013300E000239342F6D307E05C00655A9024A400055101339342F7D330BDC04610B5140003681B0501D5802200E0402282239B00C358DB05DB0DD31AA34200D8F0
:401AC0001C002200FFF7CEFF200010BD30B503681B0501D5802200E0402200240AE082239B00C358DB05DB0D9A42F8D090239B00C55001340D5D002DF1D130BD03E0902385
:401B00009B00C150013A002AF9D1704710B5140003681B0501D5802200E0402282239B00C358DB05DB0DD31AA34200D81C002200FFF7E4FF200010BD10B554683C4B9C423E
:401B400036D1C2239B00C358DB051CD01378002B10D0116A40230B431362C1239B00C158802464022143C150C45832492140C150C35808E0002906D1116A40230B431362FC
:401B8000D0239B00C358116A20230B431362136A10218B431362016E274B0B4003660021264BC150083B0131C150C3581F3121E08224A4000359DB05D90D0359DB0B01240D
:401BC00023405B18116BC91A5163116A090705D4D16AC918D162916ACB1A9362116A04230B431362136A01218B4313620021144BC1501031134BC4580223FF331C420ED04E
:401C000003685B005B08036000238366C3660368802424062343036003684023194380235B055360536C002B01D00800984710BD01100000FFFFFEFFFF5FFFFFC80F000053
:401C4000880F00004C0F000010B51C4BC3589A071DD5F02212010224845084588258520702D58020800301E0802040038A6802438A604868B8225203904208D00A7B002A53
:401C800002D0C022520301E0B02252034A60DA0504D58A688020000402438A60DA0704D58A688020C00302438A601222FF32134202D0C0235B034B6010BDC0460C0F000048
:401CC00000230B4A83500B4A8350836E002B04D01822FF32084BC25008E01422FF32064BC25018238366B8235B034B607047C046C80F0000880F0000080F000070B53F4B06
:401D0000C458026E3E4B1340036600233D4A83503D4A83503D4A8350F0231B011822FF32C250C3588A683A4B13408B604B7B002B02D08B69CB610CE08D698226B600835926
:401D4000DB05DA0D8359DB0B012633409B18EB1ACB610223FF331C421ED0036E9B0F032B06D10233FF331C40631E9C41E4B200E00124002C0CD003685B005B080360002326
:401D80008366C36603688022120613430360036880235B054B601BE00B78002B10D0C1239B00C258802464022243C250C458184A2240C250C358FC231B010122C250C358DF
:401DC0000B7B002B01D0134B01E080235B054B604A6C002A10D04B7B002B02D08024E40201E08024A4028868F8235B04184001D0802000032043904770BDC0460C0F00007E
:401E0000FFFEFFFFC80F0000880F0000080F0000FFFFFEFF0000101070B505000C002423CB5C002B10D1CB6A002B0DD14B6C002B01D008209847E36A5A425341DBB224220F
:401E4000A354233A314BEA502423E35C002B16D06378002B06D02B681B0501D5802202E0402200E00122FF212800FFF74FFE236BC0182063226A08231343236244E0E26AFD
:401E8000012A13D96378002B01D0013A00E00122A16A2800FFF704FE236BC3182363E36A1B1AE362A36A9C466044A06282239B00EB58DB05DB0D802B26D0E36A012B23D127
:401EC00001F073FDA36A1A7890239B00EA50F8231B014026EE50EB5801F06BFD236B013323630023E362A36A0133A362074BEE506378002B08D0226A022313432362636C24
:401F0000002B01D00420984770BDC046880F000070B505000C004A68A8235B039A4203D1C0235B034B6059E04A68A0235B039A4254D14A69012A13D94B78002B01D0013A5A
:401F400000E0012221692800FFF7AAFDA369C318A36163691B1A636123699C466044206182239B00EB58DB05DB0D802B15D06369012B12D101F019FD23691A7890239B00A3
:401F8000EA50F8231B014022EA50EB5801F011FDA3690133A361002363616369002B1DD1237B002B06D040220D4BEA50A8235B03636005E000220A4BEA50B0235B036360B9
:401FC0006378002B0AD0A368802292021343A360636C002B02D080204002984770BDC046880F000070B504000D008A6C002A2ED00368DB0305D5504BC3585B0603D5022088
:4020000002E0002000E00020236E1B0506D44A4BE35880210B4000D001231843002818D09047FC231B010122E250E358002809D1F4231B010F32E250E358D222FF323F4BC4
:40204000E25007E0C222FF323C4BE25002E0002000E0002081239B00E258802149020A43E250E158364A0A40E250E358002801D1012300E00223E36600285CD1636E10265B
:402080001E406B6C002B05D0002E01D0013000E002209847002E0DD02A4B6B602B6A012213432B626B6B2B6300212423E954264BE25040E0254B6B602A6A102313432B6243
:4020C0000122234BE2502B78002B1AD0EB6B002B19D0236E8022920113432366ED6B802D05D92B00803B802B0FD8813D0EE0013D236E80221202134323660022144BE25038
:4021000004E0002502E0002500E03F2523681B0501D5802300E040239D4204D3A32189000C4801F07BFBC1229200A358FF218B430D401D43A55070BD4C0F0000480F000047
:40214000FFFFFEFF02100000880F000001100000C80F00009CB9001070B505000C004B6888225203934204D09022520393421DD06BE0D0239B00C3580A6913708B69013302
:402180008B614B69013B4B61002B05D00B6901330B610423836658E00B7B002B02D0C0235B0301E0B0235B0363604EE04A690969FFF734FCA369C318A36163691B1A636179
:4021C0002269944660442061012B24D82A6E1F4B13402B666369012B16D12B681B0501D5802300E04023002B04D1A3218900184801F014FBC1229200AB58FF218B43AB50EB
:4022000088235B03636020E00022124BEA50B0235B03636019E0402B01D89C1E00E03F242B681B0501D5802300E040239C4204D3A3218900064801F0F1FAC12189006A5823
:40224000FF239A43234013436B5070BDFFFEFFFF9CB90010C80F000070B505000C00CB6B002B53D00B78002B41D0C1239B00C358FF221A400132896BFFF7D0FB236CC318A7
:402280002364E36B1B1AE363A26B94466044A063802B06D91A00803A802A11D8813B1C000FE02B6E8022120213432B66E36B002B01D05C1E00E000240022174BEA5000E0EC
:4022C0003F242B681B0501D5802300E040239C4204D3A3218900114801F0A0FAC12189006A58FF239A43234013436B5013E00123C3660B6CD02292008258896BCA54236CD0
:4023000001332364E36B013BE36304E00223C3660022014BC25070BDC80F00009CB90010F8B505000C0016000B78012B04D00A7A002A03D1002702E0002700E00127002DB9
:4023400000D1B3E0002C00D1B2E0002E00D1B1E0013BDBB2022B03D95021574801F05EFA6378002B00D06379002B03D05121524801F054FA0323E356002B03DA52214E4844
:4023800001F04CFA2379DB0703D553214A4801F045FA2369102B03D95421474801F03EFAE368102B03D95521434801F037FA6379002B02D08021490200E00021E279002ABA
:4023C00002D080235B0000E000230B438022120113432B60A379002B01D1110000E0002123695A1E0F2313401943E3685A1E1201FF231A400B0013432278920713432B6649
:40240000002F01D02D4A01E00822FF32C0239B00EA50002F01D02A4B00E02A4B2B676378002B01D07F2200E00022C1239B00EA50E3785B00FF221340227912041343C4228B
:402440009200AB50204A80239B00EA50A378002B01D0402200E0012281239B00EA5000231A4AAB501A4AAB501A4AAB501A4AAB501A4AAB502378022B02D0D222FF3200E05B
:402480000022174BEA5063783370A378737080235B0573600023B360B36133623364F3633363F3627364B364002004E00D4802E00C4800E00B48F8BDE0B90010070300003D
:4024C00003002A0013102A0007010100C80E0000880E0000C80F0000880F0000080F0000480F00000120AA0070B505000C1E04D1B1218900174801F091F92B6E9B0F012B79
:4025000011D1154A154BE31893421AD9144A154BE318934217D9144B9C466444134B9C4213D8134814E0002C11D02A6E12090F210A402B6E194051180231200003F0EEFF92
:4025400006E00C4804E00C4802E0002000E0002070BDC046E0B90010405B730020AD88FF50A9AB005059E8FF004D0EFF40555C0440420F00801A0600A0860100F0B55F4684
:4025800056464D464446F0B483B0060089460192002A03D17549764801F040F94B465C1E744B9C4204D985218900714801F036F9336E9B0F012B0DD101993000FFF794FF4A
:4025C0000700C0229200B1586B4B0B40B3506B4B3367C3E0674B9C4226D8694B99450AD8684A019B68498C466344934220D900239B46013334E0654B99450AD8644A019B12
:4026000064498C466344934219D900239B46013326E0614A019B61498C466344934217D900239B4601331BE000239B46013317E000239B465A4B9A461D00002310E0002302
:402640009B46E1239B009A46C825ED00002307E001239B467C33FF339A469B25AD000023002B7AD101994F4803F058FF07000100280003F053FF040003007B439D4200D9DD
:402680000134102C00D9102400230F22A2425B41DBB298463900504603F040FF05004743BA4500D90135102D00D910256119019803F034FF070016E04346002B05D00F2C7A
:4026C0000CD801340023984608E00F2D06D8013500230F22A2425B41DBB298466119019803F01CFF07004F4502D963191F2BE3D95B46002B09D0C0229200B35880218900E2
:402700000B43B350284B336707E0C0229200B158194B0B40B350194B3367E31F092B03D92249234801F07AF8326EF0239A43013C2301FF241C40144334666B1F0B2B03D9DF
:402740001C491B4801F06AF8326E0F218A436B1E19400D001543356600E00027380003B03CBC90469946A246AB46F0BD13020000E0B900103F420F00FFFDFFFF13102A0005
:40278000A0860100502D19005059E8FF801A0600A043210020AD88FFC02BAF00807E25FF8813000000CA9A3B03002A008D05000020BA0010AA050000F8B504000E003F4B3D
:4027C000C358DB0707D580235B014B60813BFF3B0122C250C3583A4BE5580223FF331D420ED0336AEA0502D58022520000E08022134333620022334BE25010231D430EE0A3
:40280000EB060CD5C2239B00E358DB0507D0F36B002B04D001232C4AA3502A4AA3502B4BE358DB071AD52368DB030AD5062000F0E9FF234BE35840271F407B1E9F41FFB2A2
:4028400000E00027002F0AD131002000FFF704FDFC231B010122E250E35800E00027EB060BD5320039002000FFF766F9F4231B011022E250E358124BE558C0232B420DD0E3
:4028800031002000FFF7AEFBE8231B010122E250E358F4231B01BF32E250E3580C4BE35841221A4208D031002000FFF7B5FAF8231B010122E250E358F8BDC0468C0E0000A5
:4028C0004C0F0000C80F0000C40F0000CC0F00008C0F000070B506000D00E0231B01C458A3070CD5836E002B06D0002383668B688022520413438B60C0235B036B60E3073F
:4029000005D529003000FFF79FF904239C43230708D529003000FFF71FFCFC231B010122F250F358630708D529003000FFF7F0FAF8231B010122F250F3586A68C0235B03FA
:402940009A4203D129003000FFF7D8F96A68B0235B039A4203D129003000FFF7B1F970BD10B54B68DB0202D5FFF7B4FF01E0FFF723FF10BDF8B54F464646C0B405000C00C0
:4029800003681B0501D5802700E0402780239B00EB580F261E40A26A012A1BD9636A9946E262531E98464B46002B02D04346002B03D12649264800F031FF424649462800F8
:4029C000FFF76EF8A36A1B1AA362072E00D940004844606282239B00EB58DB05DB0D9F422FD0A36A012B2CD10023A362072E02D8636A1E7801E0636A1E8800F0D6FF9023D1
:402A00009B00EE50F8231B018027BF00EF50EB5800F0CFFF0F4BEB580F4E1E403E430F4A134203D00E490F4800F0F8FE094BEE502268022313432360236B002B01D001202D
:402A400098470CBC90469946F8BDC0467305000060BA0010880F0000FEFDFFFF8CF8FFFF360400009CB90010F0B5474680B405000C0003681B0501D5802600E040267608AA
:402A8000A769E3699846002F01D0002B04D19921C900324800F0C2FE424639002800FEF7BDFF236A1B182362E3691B1AE3612ED1A368002B1ED0E3689E4201D8013E00E045
:402AC0005E1E2B681B0501D5802300E040239E4204D3A3218900224800F0A0FEC1229200AB58FF218B430E401E43AE5001221D4BEA5002E000221B4BEA50636801229343AF
:402B00006360236B002B25D00420984722E0A169C0229200AA580F273A40072A00D940000818A0619E4215D95C1E2B681B0501D5802300E040239C4204D3A321890008487B
:402B400000F06CFEC12189006A58FF239A43234013436B5004BC9046F0BDC04660BA00109CB90010C80F0000F8B505000C001600002800D1BDE1002900D1BCE10B78022BFA
:402B800003D93F21C14800F049FE637B023BDBB2062B03D94021BD4800F040FEA37B002B07D0022B05D0032B03D04121B74800F035FE2123E35C012B03D94221B34800F0D0
:402BC0002DFE2823E35C012B03D94321AF4800F025FE2378012B06D86268083A082393429B415B4208E0A37F002B05D063685A1E062393429B415B42002B03D04521A3486D
:402C000000F00CFEA368053B042B03D946219F4800F004FE6369FF2B03D947219B4800F0FDFDA369FF2B03D94821984800F0F6FDA37C002B0FD02378002B07D1A368092BB9
:402C400006D1A37B002B05D0012304E0012302E0012300E00023002B03D04A218B4800F0DDFD8B4B626B1A4203D04C21874800F0D5FD884BE26B1A4203D04D21834800F0DC
:402C8000CDFD2378022B02D1A37F002B02D063685A1E00E00022237F002B02D08021490200E00021A368082B02D880231B0100E0002319430F2313400B4380229204134328
:402CC0002B60226B2B681B0501D5802300E040239A4203D362216D4800F0A0FDA26B2B681B0501D5802300E040239A4203D36321664800F093FD626A2B681B0501D58023FE
:402D000000E040239A4203D36421604800F086FD23781B06C022920413402B64637F002B01D0402200E00022A37C002B02D08023DB0000E000231A43237C002B02D080216F
:402D4000490000E000210A43637C002B02D08021890000E000210A43E36A013B1B04F020000303401343627B013A07210A4013431900A27B120130231A400B001343AB64CE
:402D8000237B002B02D08022520000E00022E37B002B04D12378022B03D1013B02E0012300E00023002B02D080239B0000E000231343A268013A0F273A401343C0229200F0
:402DC0009446AB50FF2260691040A3691A04FF2109040A400243C4239B00EA50E26A6346EB583B4003339A4201D3102A03D97A21264800F013FDE37F002B04D02378012B42
:402E000003D0002302E0002300E00123002B02D08020400000E00020627B013A0723134001001943A27B120130231A400B0013436B64237B002B02D08021490000E0002131
:402E4000A3685A1E0F2313400B432278012A02D18022520200E00022134380229200AB50FF23226B1340C1229200AB502023E35C002B02D08022920400E000222123E35C39
:402E8000012B09D180235B0407E0C046A0BA001092F4FFFF8CF8FFFF002313432822A25C012A02D18022520200E000221343FF21626A0A4013432B65A36B0B4081229200F6
:402EC000AB500F4B626B13400E4AAB50E26B0E4B13400E4AAB50002E0FD0002373603360B360F3603362F3623363094B7363002004E0084802E0074800E00020F8BDC046D8
:402F00006D0B0000C80F000073070000880F0000EFCDAB000160AA000B694A69934202D34869181A03E0CA684869101A18187047F0B5474680B407000D0003681B0501D559
:402F4000802300E040235B089846C2239B00FE58F605F60D2C6929E00134EB689C4200D100246B699C4211D12B6B002B01D0082098476B699C4209D10022204BFA50002CA1
:402F800001D0013C14E0EB685C1E11E0D0239B00F958403BFB580F221340072B02D8AB68195502E06300AA68D152013E002ED3D12C61EC6829003800FFF7AEFF201A804524
:402FC00019D9002801D0441E00E000243B681B0501D5802300E040239C4204D3A3218900074800F01BFCC1229200BB58FF20834320401843B85004BC9046F0BDC80F00005F
:403000009CB9001070B504000D00E0231B01C3581B0736D5364BC258C8239B0013400BD04A681A434A60FC221201835083580B6B002B01D0102098472D4BE3581B0508D576
:403040006B688022120113436B60FC231B01E250E358274BE358DB0713D5EB69002B04D029002000FFF700FD06E0AB68002B03D029002000FFF75CFFFC231B010122E250D8
:40308000E358E0231B01E3585B072FD5194BE258A023DB0013400BD02A681A432A60F8221201A350A3582B6B002B01D020209847104BE358DB0708D529002000FFF75AFC7C
:4030C000F8231B010122E250E3580A4BE3589B050CD50022084BE2502B6801218B432B60EA622B6B002B01D00220984770BDC046CC0F00008C0F0000880F0000134B1A6844
:403100003C23D35C83421DD9042904D94B1EFF3B9BB2132B18D8FF290CD91F2319400C4A0300C0339B009950D03080000423835000200AE007231940D0308000044BC150BF
:40314000002002E0034800E002487047144500080000264001004A0010B504000E4B1A683C23D35C834204D8A12149000B4800F055FB2300D0339B00094A98580723184018
:40318000042807D1C034A400A3581B30184080235B00184310BDC04614450008E0BA00100000264070B5041E03D14A494A4800F035FBB023DB00494AD358002B00DA87E000
:4031C000474B22689A4203D94649434800F026FB23689B039B0BE279002A02D08022520400E000221343B022D2003C498B50A2883D4B9A4204D98C218900374800F00EFB3D
:4032000022893A4B9A4203D93949334800F006FBA388DB04D90C23891B04364A13400B43354A2E498B50A37A0F2B04D98E218900294800F0F3FAE37A0F2B03D92F492648F9
:4032400000F0ECFAA289284B9A4203D92C49224800F0E4FAA37A0F211940E27A1201FF2313400B43A289120226490A401343A27B1207C02189050A401343B122D200174905
:403280008B50A379042B03D91F49134800F0C6FA228A164B9A4204D9912189000E4800F0BDFA0E4819494558194B1D40A3791B02E022D20013402B4343504558154B1D40CA
:4032C000238A1B040B4A13402B434350002000E0114870BD1F020000E0BA001000002640FFFF030029020000FF1F0000FF010000310200000000FF01840500003902000061
:403300003A02000000FF1F00430200008C050000FFF8FFFFFFFF00FE03004A0070B505003149324A8B588020000603438B502C0003E0012000F066FA013CB223DB002A4A74
:40334000D3585B0701D4002CF3D12749B122D2008858274B03408020800503438B50002D01D0002C0CD02049B022D2008B588020000603438B5003E0012000F043FA013CE0
:40338000B223DB00184AD358DB0701D4002CF3D1002D01D0002C08D01349B122D2008B58C020800503438B5013E00F4BB121C90058580F4A02408020800502435A50083935
:4033C0005A58520052085A5008495A58520052085A50002D03D0002C03D0002002E0002000E0044870BDC046000026408C050000FFFFFFCF02004A00F0B5564CA04200D9DB
:40340000A2E0A24200D9A1E0534B994200D99FE00124524B1C70FF2805D80F2505400E340F26072321E04E4B984205D80F2303400F240026002518E0040A0F2323401D0093
:40344000484B984208D80001FF2318402B000343FF240026002508E00402F020000120402B000343404C00260025FF2A0DD81201FF2002401543E020C0021843F0231E4393
:40348000F0231B0323439C4625E03548824207D81004F022120310401843224394461AE0100A0004F0273F03384018432D4B9A4209D81205F0231B0413401843FF231B0498
:4034C00023439C4607E01206F0231B051A401043264B23439C46264B1A68176AB023D45AE200131BFB181B68002BF4DA1B4B5B78002B04D01F4B204AD358002B18DA1F4A1B
:403500001F4B1A601F4A204B1A601B4AA324E4001359B3431D4315511C4C13596546AB43184310510D4B5960124BD150002000E017480F4B1A68146AB023D15ACA00531A7B
:40354000E31800225A6004E0114802E0104800E00F48F0BD0F060000FFFFFF00AC350008FF040000FF0500000F0F000000000F0F144500081C050000000026401F1F0000B5
:40358000080126403D3D0000040126401405000001004A0070B50022264B1A70264B1C68226AB023E55AEC00631BD3181C68002CF4DA224A1468224A944206D1214A1468C3
:4035C000214A944203D0002502E0002500E00125A422D2001D4CA4582402240A00225A60002D24D0002C23D000280FD1114B58680A000023002103F027F96208002380186E
:403600005941220003F000F9040011E00A0000232000002103F018F9064B5A685408002500196941002303F0EFF8040000E00024200070BDAC350008144500080801264019
:403640001F1F0000040126403D3D00000000264070B505000C001A4B1B6828229A5C012A15D1820807211000884327D19200AD1AED00FF20A8401B6820339A181168AC4093
:4036800023004B40184004004C40146016E03A229B5EDBB2994203D176210A4800F0BEF8074B1B681B68072215408022120615438022920194466444A400E55070BDC0463F
:4036C0001445000868BB001070B504000D000B4B9A680B4B9A420CD1002904D13821FF31084800F09BF81034054BA400E058E55003E01034A400044BE05870BD00ED00E04E
:403700000000000868BB001000000010F0B5474680B482B0061E01914AD04368032B03D93221264800F07AF80023F05E002804DBB178FFF78DFF002400E0214C0023F15EF8
:403740007368002912DB88081E4FC0308000C55903221140C900FC3290468A4095439A01434613408B402B43C35116E089B20F220A40083A920806329200134810184768A0
:4037800003221140C900FF252A008A4097439A012B0013408B403B4343600B4B9A680B4B9A4206D10023F05E0199FFF78DFF00E0034C200002B004BC9046F0BD68BB00106E
:4037C0000100560000E100E000ED00E00000000810B5040006E0084B186800F0DDF8074B9C46644480231B029C42F4D8044B1868604300F0D1F810BDDC0000080080FFFFF5
:40380000D800000810B5034B1B78584300F0C4F810BDC046D400000801BEFEE770B50D00044C18220100200005F011FCA5610020FFF7F2FF800A0008024B1B685B68012234
:403840009A60704714450008054B802212069A649B6C002B01DB002000E002487047C0460000274003004600054B8022120198585B68FF221A4202D08023DB0218437047D0
:4038800000002640FEE7C04610B50A4B0268DA6142681A6282685A62C2689A620269DA6242691A6382695A63C2699A63FFF7EAFF10BDC046800A0008F0B5474680B4002895
:4038C00001D0192300E064238B429B415B42304D2C682268A826A45BA41822680327BA433B401A4322602C682268A45BA2181668284CA046264016602C682668AA2294468C
:40390000A25A96193268BA43134333602A6813686546525BD3181A68444614401C60002805D010291BD921291BD8012024E0184B1B6855229A5C914215D956229A5C91424F
:4039400013D957229A5C914211D958229A5C91420FD959229B5C99420DD804200CE000200AE0022008E0002006E0012004E0022002E0032000E00520054A12685268136879
:403980000F218B430343136004BC9046F0BDC04614450008FFFCFFFF0230800803D001300238FCD1C046C0467047EFF3108072B6704780F31088704710B5B0235B059B89F6
:4039C0009BB2002B04D0B0235B059B899BB201E080235B0080225200934215D1184C23681968683A9B58C9180B680F208343963A13430B6021680C689C23CB58E31819680F
:403A000081430A431A6019E00D4C2368196898229B58C918B02040050A4BC2580A4B13400A681343C022920013430B60226811689C23D358CB18054A82581A6010BDC046A0
:403A40001445000848180000FFFCFFFF4418000030B5B0235B059B899BB2002B04D0B0235B059B899BB201E080235B0080225200934215D1184C23681968683A9B58C91890
:403A80000B680F208343953A13430B6021680C689C23CB58E318196881430A431A6019E00D4D2B68196898229B58C918B0246405C12040012258094B13400A681343C02209
:403AC000920013430B602A6811689C23D358CB1822581A6030BDC04614450008FFFCFFFFB0235B059B899BB2002B04D0B0235B059B899BB201E080235B008022520093426B
:403B00000DD1104B1B681A6898215B58D21811680D4B0B40C021C9010B43136011E0094B1B68196898229B58C918084BB0225205D258074B13400A681343C02292001343B5
:403B40000B60704714450008FF8FFFFF18180000FFFCFFFF30B5B0235B059B899BB2002B04D0B0235B059B899BB201E080235B008022520093420DD1134B1B681A6898213F
:403B80005B58D2181168114B0B408021C9010B43136018E00C4D2B68196898229B58C918B02464050A4822580A4B13400A681343C022920013430B602A6811689C23D35886
:403BC000CB1822581A6030BD14450008FF8FFFFF4C180000FFFCFFFF10B5B0235B059B899BB2002B04D0B0235B059B899BB201E080235B0080225200934217D10020FDF707
:403C0000D5FEB0235B055B78002B04D0B0235B055B78DBB200E02123222B03D8002803D1013004E0012002E0002000E0012010BD10B50400012803D910491148FFF7EEFD6A
:403C4000002C03D10F4B5869C00F00E000200E4B1A684423D35C002B0ED0012C0CD1094B9B695B0005D4074B9B69002B03DA012002E0012000E0002010BDC046620700008C
:403C8000ACBB0010000026401445000870B504000D00154B1A684423D35C002B22D0072803D912491248FFF7B9FD0F4B1A684423D35C002B04D00F4B9B690722134000E064
:403CC000002321009C420DD00A4882690726B243344014438461002D04D0994202D9C820FFF790FD70BDC04614450008CC070000ACBB00100000264030B5021E22D0C3682E
:403D0000002B21D00368002B20D00579A900104BCC582300002103E0934205D019005B69002BF9D1012000E0002000280FD0002C03D1AD00064BEA5000E04A611161002318
:403D4000536104E0002002E0002000E0002030BDB835000810B5021E28D00479A100144BC9580B0002E0934204D05B69002BFAD1002000E00120002819D08A420DD14B694C
:403D8000002B05D0A4000A4AA35000221A610EE0A4000022064BE25009E01A69596951615A69002A03D01B69136100E0002010BDB835000830B585B004000D00022807D9B5
:403DC000042805D0032803D02A492B48FFF726FD6B1EDBB2012B07D9042D05D0082D03D026492548FFF71AFDA400254BE458042D13D0012D1CD112E0A3682B420BD1E3689C
:403E00001A6802925B6801930393290002A8236898471B4B5C61646902E0002000E00020002C24D0174B9842E6D1012DE4D11EE0022D01D104E01C006369002BFBD104E0B4
:403E40000F4B5C69002C00D0246900200DE0A3682B4209D1E3681A6802925B6801930393290002A8236898472469002CEFD105B030BDC046B2090000ACBB0010B3090000A1
:403E8000B8350008FF00420070B50500012804D9E02149001B48FFF7C1FC1B4B1B68002B05D001210020FFF785FF040000E00024002C20D1FFF779FD0600134B1B68002BF4
:403EC00003D004210020FFF775FF104A136904218B431361012D01D030BF00E020BF3000FFF767FD084B1B68002B09D008210020FFF760FF04E002210020FFF75BFF044C8D
:403F0000200070BDACBB0010B835000800ED00E0FF00420010B5FFF748FD074B5A6807490A40E824A40122435A605A68114059605B68FFF73EFD10BD00002640FF00FC0F3F
:403F4000F8B50700012803D93D493E48FFF766FCB0235B055B78002B04D0B0235B055B78DBB200E021239DB2B0235B059B899BB2002B04D0B0235B059E89B6B201E080262D
:403F800076000020FDF712FD002814D180235B009E4212D1222D12D82B4B1B685C682B4821582B4B19403B068022520413400B432350002404E0274C02E0264C00E0254C7C
:403FC00080235B009E4201D1222D03D880235B009E4232D01C4B1A683123D35C002B04D1C421FF311C48FFF719FC174B1B681D6A80235B009E4203D1002F05D0174A06E0AE
:40400000002F03D0164A02E0164A00E0164A01212800FDF781F900280FD10B4B1A68B423D3585B191B68002BF7DBEB681B0E1B06A0221206934200D100242000F8BDC046F2
:404040004C0A0000ACBB00101445000818F00000FFFFFFFE04004200DCB70010010100300300000C010000300100000C70B50400022805D0052803D020492148FFF7CEFBEE
:40408000FFF7AAFD002836D0FFF78FFC0600022C07D10120FFF754FF051E0FD1FFF78CFC0CE018494B6907229343043A13434B613420FFF7A7FBFFF74DFD0025002D16D118
:4040C00010494B69072293431A000723234013434B61022C02D1FFF703FD08E09120FFF791FBFFF7B5FC0020FFF72AFF05003000FFF75FFC00E0044D280070BD02070000FE
:40410000ACBB00100000264003004200F8B50500012804D9822109012948FFF77FFBFFF75BFD002849D0FFF740FC0700002D11D10021244B244AD150E823DB00B022520512
:40414000D65CF6B20120FFF7FBFE041E19D1FFF733FC16E0B02252051C4BD0581A4B194958501B49565CF6B21A481A581F218A4314390A431A500320FFF744FBFFF7EAFC30
:404180000024002C15D11049124A8B581F20834306401E438E50002D02D1FFF7A1FC08E00720FFF72FFBFFF753FC0020FFF7C8FE04003800FFF7FDFB00E0074C2000F8BD92
:4041C000ACBB0010307F00000000264010180000410700001CFF000003004200042805D10B4A116804230B4313600FE0094B1A681168A023D358CB180006C02292041040CE
:404200001860034A136804218B4313607047C04610E000E0144500080749C02252008B589B009B088020C00503438B508B588020000603438B50704700002640014B186034
:404240007047C04614450008F8B54F464646C0B407000E00002803D13A217A48FFF7DEFA002E03D13B217748FFF7D8FA002F00D1E0E0002E00D1DFE0734B32681A4203D0F8
:404280004A217048FFF7CAFA704B72681A4203D04B216C48FFF7C2FA6D4BB2681A4203D04C216848FFF7BAFA694BF2681A4203D04D216448FFF7B2FA337D032B03D94E21A1
:4042C0006048FFF7ABFA634BB2699A4203D94F215C48FFF7A3FAF36D072B03D950215948FFF79CFA5B4B326E9A4203D951215548FFF794FA574B726E9A4203D95221514870
:40430000FFF78CFA80231B06726813437B60B3683B61F3687B613369BB61337D9B07FB61B3693B62E0231B0132681A409046042372681A409146002433E02500A31D9B0053
:40434000F3185A68444B1A4203D063213D48FFF765FAAB1D9B00F3182A00203292005968D1515A683D4B1A420BD1E0231B01984507D14B46002B04D06B003949394A9952B4
:4043800003E06B000021374A9952716F364BC818490002F04DF900B2AD00344BE8500134E4B20F2CC9D986239B00F26DFA50083BF26DFA501833326EFA50083B326EFA5067
:4043C0001833726EFA50083B726EFA50C13BFF3BF35C002B19D0264BB26E9A4203D982211848FFF71BFA234BF26E1A4203D083211448FFF713FA1E4AC1239B00FA50043B7B
:40440000B26EFA504433F26EFA50F0231B01FB583F2B04D0F0231B01FB58002B03D10B22F0231B01FA5033688022920313433B60002002E0104800E00F480CBC9046994639
:40444000F8BDC0465CBD00100811DF0001FE302000FC00FCFFFF000088CA887E0001000100F8FFFF184500080000710238450008FFFFFF3F00FF30FF0100060070B50500D3
:404480000C00002803D1B5211848FFF7C7F9002D28D000232B606B60154A2A616A61AB61EB612B6206E01A0020329200002151510133DBB20F2BF6D9002386229200AB5007
:4044C0001032AB501032AB50002C0DD0094AC1239B00EA500023D0229200AB500432AB50002002E0044800E0002070BD5CBD001003000300FFFFFF3F0100060010B503683D
:40450000002B0CDBA8239B00C358002BFADB036880221206134303600220FFF773F910BD70B505000C00012904D97221FF310748FFF774F9012C05D16B68802252021343E5
:404540006B6001E001236B6270BDC0465CBD001070B504000D00012904D9F02149001448FFF75CF984239B00E35801221340012D07D00CE084239B00E35801210B40013AFB
:4045800000E00C4A002B03D1002AF3D100E0094A012B06D184239B000122E250E358002004E0002A01D1044800E0044870BDC0465CBD0010555555010200060003000600EB
:4045C00070B505000C000F2904D9952189000848FFF724F90F2C07D82034A4006259054B1A4203D0002002E0002000E0012070BD5CBD00100001000170B505000C000F2999
:4046000003D90F490F48FFF709F90F2C12D821002800FFF7D5FF01235840C0B2002804D06B681B0708D4002009E06B685B0705D4002004E0002002E0012000E0012070BD58
:40464000220200005CBD001070B505000C000F2903D907490748FFF7E1F80F2C05D86034A40060590004000C00E0002000B270BD7B0200005CBD0010F8B506000C001500C3
:404680000F2903D91A491B48FFF7C8F80F2C2CD873681B0623D4230020339B009B595B051DD573681B0907221340013301279F407368DB0502D4102F00D9102721003000FA
:4046C000FFF79AFF002805D1A8B2390001F026FF05B204E039B2280001F0AAFF05B26400054BE05A00B22D1A2DB22800F8BDC0467B0300005CBD00101845000870B50500A6
:404700000C0016000F2904D9F72189001048FFF785F80F2C17D86B689B0716D4320021002800FFF7A9FF02F0C7FB0A4902F0B0FA051CA400084BE05802F0BEFB011C281C35
:4047400002F08CF902E0002000E0002070BDC0465CBD0010000020413845000870B5060014001D00002903D00E490F48FFF756F80E4B9C4203D90E490B48FFF74FF8012D0C
:4047800004D99421C9000848FFF748F8012D05D1C0229200B3581C43B45002E0C1239B00F45070BD9E0400005CBD0010FFFFFF3F9F04000070B504000D0016000D4B1942B7
:4047C00003D00D490D48FFF729F8012E03D90C490A48FFF723F8012E05D1D1229200A3581D43A55004E0D1229200A358AB43A35070BDC04600FF30FFED0400005CBD0010C7
:40480000EE04000070B50D000F4B184300040F4BD861FA24A40003E0013C0120FEF7F2FF0A4B1B6CDB0701D4002CF5D1002C08D0064B196C01220A431A64DB6A2B800020C2
:4048400000E0034870BDC0460080FFFF00003C400400160010B500040E4B184001430E4BD961FA24A40003E0013C0120FEF7CAFF094B1B6CDB0701D4002CF5D1002C06D02E
:40488000054A116C01230B431364002000E0034810BDC0460000FF7F00003C4004001600F0B583B006000A24C02149017548FFF7D1FF002804D16B46991D7248FFF7A2FFA2
:4048C000002C01D0013C00E06F48002805D16B46DA88C0235B019A42E6D1002825D16B46991D6A48FFF78EFF00281ED16B4606331B885B0519D40A248021C9006348FFF720
:40490000A9FF002804D16B46991D6048FFF77AFF002C01D0013C00E05B48002805D16B46DA888023DB009A42E6D1002804D16B46991D5748FFF766FF002844D16B460633F0
:404940001B883F229343B278012A15D1F178012904D88FB20222D21B95B201E000250227402213439BB2302213436A46D380494BCB40494A136013E0F178002904D18FB2FB
:404980000122D21B95B201E00025012740229343102213436A46D380404BCB403E4A13606B469C1DD9883943D9803948FFF752FFF378DB1B03221340AA0092B213432380F6
:4049C000374A38498B50B0235B055B78002B04D0B0235B055B78DBB200E02123212B4FD0314BB0225205D35A9BB2002B48D0002804D16B46991D2D48FFF704FF002824D162
:404A00006B469A1DDB8860218B4318001380B0256D05254C2B5B60310B405B08034324490B401380295BC901F020C00001400B43204919401180285BC0239B000340DB0084
:404A4000194311801948FFF705FF002804D16B46991D1948FFF7D6FE002811D16B469A1DD988C023994311800F4BB0204005C05A302303409B00194311800F48FFF7EAFE60
:404A800003B0F0BD021E000004001600031E0000091E00000048E801C00000080024F40064F0010000003C4016180000071E00007FF5FFFFFFE7FFFF061E000070B50C0034
:404AC0004000084901430848FFF7C4FE051E04D106490748FFF7BEFE05006001FEF792FE280070BD01100000081E0000376800000F1E00000349044A8858102303438B5080
:404B00007047C04600003C4070F00100F0B59DB013A9144B0A00180070C870C270C870C270C870C20AAD28001A002432D0CAD0C0D0CAD0C0D0CAD0C001AC22004833C1CBCB
:404B4000C1C2C1CBC1C2C1CBC1C20748FCF756FB29000648FCF752FB21000548FCF74EFB1DB0F0BD98BD0010000132408001324000023240F8B5051E00D1DDE0734B5B6808
:404B80009B0301D5FFF7C6F9714C03E0013C0120FEF738FE6F4B704AD358002B01D0002CF4D16E4B6C4AD358DB0704D56C4BD358DB0700D5C2E0674B674AD358002B00D0FE
:404BC000BEE0FFF7A3FF644B6649674A99502A78A02109030A4365495A506549654A9950802252009B58DB0700D5ABE0624B1B6F1B0709D4614B1868614B984206D9190024
:404C000001F08CFC013802E0012000E00020524B1B68002803D040035A4A104300E05A4818434D4B1860494B5B695B0017D501210320FFF72BF8454B5B699B0F012213400C
:404C4000524A116844228A5C002A0ED0002B0CD03E4A93698021C9050B43936105E03E494B4A8858032303438B503B4C3B4AA658484B3343A3504020FEF7C4FD464BE3587F
:404C8000DB070BD42700444C01233B514020FEF7B9FD03233B514020FEF7B4FD3F4F37403F4E3E432D4B2C4AD650FA24E40003E0013C0120FEF7A6FD3A4B3B4AD358DB06F1
:404CC00001D4002CF4D1002C01D0002400E0374C002C23D12049364A8858082303438B500120FEF7A5FF002801D1324E3E43324B1E4001231E43194B174AD650144E03E0F0
:404D0000013E0120FEF77EFD154B134AD358DB0701D4002EF4D1002E00D1244C002C03D12800FFF7BDFD0400002C0CD168782978FFF7C4FE040006E0204C04E0204C02E0FC
:404D40001F4C00E01F4C2000F8BDC04600002640F07E0E006CF0010000003C40A0F00100B4F0010006000001A4F00100A8F0010001000100ACF0010000F03D40C8000008A0
:404D800000093D00041A0080040A008014450008C4F0010030000300B0F00100EFFFFEFF2000020010400000000032400400160068F0010028000200FFFFFBFF010016001C
:404DC0000300160002001600014B18687047C046C000000810B5002405E02000FEF7BCF9032804D00134042CF7D9002000E0012010BDC046A023DB00064AD35803221340E0
:404E0000012B03D0032B03D1012002E0012000E0002070470000264070B5012902D0082944D049E0294B1B78012B47D00320FCF7C5FB274B984243D0FFF7CCFF012841D027
:404E4000022008F00AFD0500FEF7AFFD214B186029F072FE0400062817D0022D0AD1022016F0A4FB032C01D0052C10D1002810D0194C13E0012016F099FB022C0BD00028B6
:404E80000BD1FFF701F8144C08E0002406E0124C04E0002402E0104C00E00F4C0E4B9C4211D10C4B1868FEF784FD0CE0094B1868FEF77FFD002406E0074C04E0064C02E0EA
:404EC000054C00E0044C200070BDC0467C45000801018800F0350008FF00420010B50248FEF738FF10BDC046E000000810B5002817D00D4B5860C36A002B01D00A4A9360D3
:404F000000240A4B1C700A4B1C700A4B1C600A4B1C7000F0C9FB094B1C70094B1C70002000E0084810BDC046F0350008904500089445000898450008954500087B450008C8
:404F4000804500080100160030B59BB015AD14223049280003F023FB02AC4C220021200003F026FB2C4B0293A5602C4BA3810523A3732B4B5B681B6923612A4B63611B2360
:404F800023836383183B2377013363770233A3770A33E3772022A3540132A35451323433E252713A0433E2541F48FEF7A5FE08F04EFC08A808F0B6FC002828D11B4B039333
:404FC000174B5B68996B002904D022222A30684403F0E5FA02A808F04DFC002814D10122134B1A700023134A1370134A13700C4B5B681A6A00929B6ADB886A469380082303
:40500000D380684610F0BAFA00220C4B1A601BB030BDC04604BE0010BD5A001010290000F035000896100000E0000008BC0A00087C450008844500088545000898450008FE
:40504000014B024AD050704778F0010000003C40002803D0024BD860002000E001487047F03500080100160010B51DF029FA044B1B68002B02D0002800D0984710BDC046AA
:40508000FC35000810B5002809D0FA23FF33994207D80A00044903F082FA002002E0034800E0024810BDC0460708001601001600F0B55F4656464D464446F0B4B14CA5440F
:4050C00081460E00904605930B00AF4A914204D942468A18AD498A4211D9AD4A934204D94246B218AB498A4209D9AB4A934200D823E14346F318A94A934200D922E1A84B75
:405100005B695B0010D5A64B5B6907241C40022C25D10520FEF7AAFF0190A24B9842F8D003940123049324E09F4B9D4AD3581F221A40E823DB00B0214905CB5C9B1A5A1EE2
:405140009341DBB20493002B0FD10120FEF7DEFF944B9842F9D001900523039309E00394012304930023019303E005230393002301938E4B019A9A4204D1D621FF318C48FE
:40518000FEF74CFBF0231B069C466644730A9A465C0200210320FCF785F90028F9D100250023029399E0B4421BD3BD4219D24A4652191078804606A84146C1545946002912
:4051C0000DD1802149058846A044414609786846017001781278914201D001229346013505E080225205A218127806A8C2540134013304E0002100238B46844647466D4ADA
:405200009342D0D959466046B846002962D0019B002B5FD1059B002B51D1C83300951D00B3465646A24680231B03F7187F023800FBF79AFD0400013D0120FEF7E3FAA42336
:40524000DB0322001A409A4201D1002DEBD122000294009D5446B2465E46574B9A4205D1FBF77EFD554B9842FAD00290029B002B19D1C83300971F00A34606A90098FBF796
:40528000C9FD0400013F0120FEF7BCFAA423DB0322001A409A4204D1002FEED102945C4601E002945C46444B029A9A4211D1FBF757FD424B9842FAD0029001200AE080206A
:4052C00000035044400206A9FBF7FAFC0290012000E0012001239C46E244029B019A134301D1454586D3002801D0FEF7A5FA00210320FCF71DF90028F9D1019B002B25D192
:40530000274B5B695B0009D5039B022B06D10220FEF7ACFE0190234B9842F8D0204B1B681B0213D4049B002B10D10020FEF7EEFE01901C4B9842F8D008E000230193204BB8
:40534000029303E0002301931D4B0293019B002B0CD11C4B029999420AD0194B994207D0002901D1002004E0174802E0174800E0174887239B009D443CBC90469946A246F7
:40538000AB46F0BDE4FDFFFFFFFFFF0F00001010FFFFFF1300800014FF070016000A001600002640040042001CFF00000300420018BF0010FF0100000100500002005000CE
:4053C000060052000200520013001600120016000100160010B500280AD0FA23FF33994208D8F93BFF3B0A000349FFF761FE02E0024800E0014810BD070800160100160051
:4054000070B5C0B005000C001600802252000849684603F0C4F805E02A7872406B469E5C0135013C002CF7D1300040B070BDC04618BE001010B50022FFF7E2FF10BDC046F9
:405440000020704710B50C000088AE235843044B9C4660440A2101F061F8208010BDC04691FCFFFF10B50C000023C05E044B5843044901F0DDF8BD23181A208010BDC046B4
:405480004B280000102700000020704710B515F0C1FE10BD10B5FEF7B5F910BD064B1B685B6B00229A5E002A05DB1F231A401E3B9340024A13607047F435000800E100E0F2
:4054C000094B1B685B6B00229A5E002A0ADB1F231A401E3B9340802204498B50BFF34F8FBFF36F8F7047C046F435000800E100E0A023DB00024AD358032018407047C04618
:4055000000002640024B034AD058C00F7047C0461C0500000000264010B5FEF73BF810BD70B504000D0016000320FCF747F8054B984205D0320029002000FDF75DFF00E02B
:40554000014870BD0101880003004A0070B5431ADC171B196340934227D3164B164CE458A405A40D884208D9401A51084018110000F0D4FF201A0ED50AE0081A5108401806
:40558000110000F0CBFF00190C4B984202D802E0002000E00A48084D06496B589B0A9B028205920D13436B5001E000240020201A70BDC0463C05000000002640FE030000AE
:4055C000FF03000010B5034B1A6880210902FFF7BDFF10BDF800000810B5FFF797FA0220FFF72EFD094C2368586B0949FEF78EF823685B6B00229A5E002A05DB1F231A40D9
:405600001E3B9340034A136010BDC046F43500086950001000E100E00420704710B5FEF7C4F910BD10B5FEF7C4F910BD10B5FEF72BFC10BD10B50021FEF728FB10BDC0460E
:405640007047C0467047C0460020704700487047110016000048704711001600004870471100160000487047110016000048704711001600004870471100160000487047F6
:405680001100160000487047110016000048704711001600004870471100160000487047110016007047C04610B5024800F0DAFD10BDC0461402000870B5022875D80029E2
:4056C00075D10022002306E03C4CE45C012C01D90132D2B20133002BF6D0012A0CD1384B1B681C688A0052189300E3185B681B79023BDBB2012B5CD8324B1B78002B5AD193
:40570000314B197000281DD12D4E34688B005B189A0023689D18CB00591A4B006168C918898829822168891849686468E45A0C8031680C68A446624452684968CB185B8831
:4057400053801FE001281DD11D4D2C688B005B189A0023689E18CB00591A4B006168C91889893182216889184E686168C9180989318029680C68A446624452684968CB18C1
:405780005B895380114B18700D4B1B6818680E4B1B789A00D3189A0080180BF059FE00280AD10122074B1A7006E0094804E0084802E0084800E0084870BDC046844500082B
:4057C000F4350008854500087A450008954500080100160002001600FF00160070B5002907D1154B1B681B689968CE7F002300250FE0114B1B681B68D968CE7FF6E7CA5CB5
:40580000002A0AD00133CC5C1B2C01D09B1800E00125B34201D2002DF1D0002D0BD001338279CA54002204E0D4180134855C0D550132052AF8D970BDF435000870B5050007
:405840000FF0BAFE041E24D1134B19682B899A00D2189300143B0A6A944663445A68920117D5EA7B1B695B68C8691B1A90008018C0180A4BC018AA88296802F090FEEB7B43
:40588000074AD35C012B04D1064A117802230B431370200070BDC046F435000888450008804500087B45000870B586B004000289164B1B685B699B889A4223D101A8030079
:4058C000220062CA62C300238381A389C38140230374FFF7B3FF051E0ED123681B789B0705D50B4B1B6821000A48984704E0084B1B68210008489847084A137801218B437E
:40590000137000E00025280006B070BDF4350008F835000805000100060001009045000810B54288531E9BB2122B1CD84478002C1BD1104B196893009A189300143B0A6ABB
:40594000944663445A68920111D51B695868C969411AA3001C19641807496118022202F01EFE002004E0012002E0012000E0002010BDC046F43500088845000870B586B0EF
:4059800006000C1E16D0002816D001AD14220021280002F00DFE2B0007CC07C3022231001220684402F0FBFD40232B742800FFF745FF02E00E2000E00E2006B070BDC04649
:4059C00030B583B004000D0006220021684602F0EFFDA3896A4613802389538012231371074B1B78DB0709D4002D04D0557168460EF02CFF02E0E0680EF04AFF03B030BDAF
:405A00009045000810B5002811D00023002406E09A0011495258904200D1012401330E4A1279934206D2002CF2D0002303E000240A4B00E00023002B0CD1002C0AD1064A95
:405A40001279002A05D104499400605001320A7100E0034B180010BD9C450008010016000300160070B506000D000020002406E0A200074BD3582900300098470134044BF3
:405A80001B799C4203D2034B1B78DB07F0D470BD9C450008904500088379002B06D000200AE0C25C002A06D1013300E00023052BF7D9002000E001207047C046F0B54746B8
:405AC00080B48CB004000D00C54A117801230B43DBB21370C34B984200D178E232D8C24B984200D1DAE015D8C04B984200D1FEE007D8023B984265D0BD4B984200D1F2E04B
:405B000095E3BC4B984200D12FE1BB4B984200D188E38CE3B94B98424BD008D8B84B984200D1ADE0B74B984200D1A9E07FE3B64B984200D14FE200D9FEE1B44B984200D1B5
:405B400027E174E3B24B984200D1FAE216D8B14B984200D17FE208D8AF4B984200D1E7E1AE4B984200D1E7E161E3AD4B984200D1C3E2AC4B984200D1DBE258E3AA4B98429E
:405B800000D116E308D8A94B984200D109E3A84B984200D109E34AE3A64B984200D139E3A54B984200D152E2A44B984200D03EE303E3280008F000F8894A137801218B436C
:405BC000137034E39E4B1E683000FFF765FF00280CD030000CF01AFC994E00213068FFF7FDFD30680121FFF7F9FD37E0954B19688B6A1B79002B22D0B0204005924BC35C67
:405C00003F221340914E865D324092011A43904BC65C1F2333401B031343C022D200805C7F220240520413430A6B1370854A1168096B180A48701268126B1B0C9370814EC9
:405C40003368186B0CF0E2FB3368186B0021FFF7C5FD3368186B0121FFF7C0FD794B1B68986A02300CF082FF08227A4905A802F096FC05A80CF0EEFB0222774B1A70D6E273
:405C80000023754A1370754A1370754A13705D4B9C4200D0CBE2FFF721F9C8E2714B1B68DB0700D5C3E205AE03220021300002F07FFC644F3B689B6A1B785BB2337030003F
:405CC0000CF0E2FB3B689B6A5B785BB2337001277770FF23B37030000CF0D6FB614B1A6817431F60A3E22900FFF7BCFE9FE26B78984602225749083105A802F050FC00269A
:405D00001DE002AF73005849C9180222380002F046FC7B78002B02D1544AD35C00E00023012B0BD97300504A9B5C984506D17300D118022205A802F032FC02E00136002E13
:405D4000DFD005AB5B78FF2B04D103D148494948FDF764FD05AB1B8808AA138007AA13801B0A2978444AD15461E22B78002B00D05DE22B7A002B06D1404B0022DA809A806A
:405D80003F4A1A606B60164A137801218B4313704DE26B79984602222E49083105A802F0FEFB00266FE003AF73002F49C9180222380002F0F4FB7B78002B02D12B4AD35C95
:405DC00000E00023012B5DD97300274A9B5C984558D17300D118022205A802F0E0FB54E0904500080840000004200000021000000110000003100000041000001930000053
:405E0000013000001230000006400000044000000C500000015000000A400000104000000250000003500000105000000E5000000F50000017500000016000001450000030
:405E4000FC000008F435000804060000050600000306000054BF00107C4500088545000814360008984500087845000884450008CA03000060BF0010944500081C3600080D
:405E8000CC3300080136002E8DD005AB5B78FF2B04D103D1CB49CC48FDF7C0FC05AA138809A90B8013801B0A6978C84AD154EB78002B00D0BBE16B7998460222C44908316E
:405EC00005A802F06CFB00261DE004AF7300C149C9180222380002F062FB7B78002B02D1BD4AD35C00E00023012B0BD97300B94A9B5C984506D176009119022205A802F07F
:405F00004EFB02E00136002EDFD005AB5B78FF2B04D103D1AB49AC48FDF780FC05AA13880AA90B8013801B0A0121AC4AD1547EE12900FFF797FD7AE1AB7E002B43D12B7E79
:405F4000012B02D10022A64B1A70EB7E984602229F49083104A802F022FB00261DE005AF73009C49C9180222380002F018FB7B78002B02D1984AD35C00E00023012B0BD9B8
:405F80007300944A9B5C984506D176009119022204A802F004FB02E00136002EDFD004AB5B78FF2B04D103D186498748FDF736FC04AA13880BA90B8013801B0AFF2B02D0B9
:405FC000297E884AD1540222874B1A702FE10222854B1A702BE12900FFF744FD834B1B78DB0700D423E17E4B1B78012B03D102227B4B1A701BE1032B03D10022784B1A7031
:4060000015E1022B00D012E10022754B1A70784B1B685868774B1978CA00531A5B00C3189A79002A00D102E19B88002B00D1FEE0714B1B78002B00D0F9E00120FFF73CFBE9
:40604000002800D0F3E00122654B1A70EFE02900FFF708FDEBE002222900684602F09FFA6B465B78002B03D102215B4AD15405E0002B03D161495448FDF7D0FB687840003B
:40608000544B18180222290002F089FA6B7800215B4AD1549800C0185A4E8019544B1B6819692B789A00D318574A94466344C9180631052202F073FA6B789800C018801958
:4060C0000421FFF7B7F96B789A00D318F618337998420DD04D4B1B6800214D4898476B789800C318474818180522002102F060FA29002000FFF7B6FC99E001AE022229003D
:40610000300002F04CFA7378002B03D10021324AD15405E0002B03D138492B48FDF77EFB6B7800212D4AD15429002000FFF79AFC7DE005A82B880380172343800EF094FBC7
:4061400075E02800FFF7B0FB011E04D129002000FFF788FC01002800FFF732FC234B1A7811231A4204D0294B1B682900200098472A891E4B1B78DB070DD5531E9BB2122B0C
:4061800009D905A8122303714280AB890380012343710EF05BFB154A137801218B43137045E02900FFF75EFC41E02900FFF75AFC3DE02900FFF756FC39E02900FFF752FC5D
:4061C00035E0C046CA03000060BF00108045000854BF001078450008844500081436000885450008183600087C45000890450008F43500087A45000895450008860300007F
:40620000944500088845000890100000F8350008040001002800FFF783FB29002000FFF721FC04E00B4A117801230B4313700A4B1A7811231A4209D0074A137801218B4303
:406240001370064B1B682900200098470CB004BC9046F0BD7B45000890450008F83500080020704710B5002805D0044B18600448FFF7C8FB00E0034810BDC04628360008FD
:40628000616200100100160070B50D001600002907D1002408E02878FAF7F2F90135013400E00024B442F6DB200070BD70B50D00160000290CD100240DE0FAF7EDF9C0B2F8
:4062C000287001340A2806D00D2804D0013500E00024B442F1DB200070BDC04610B502490248FCF73DFB10BDA44500080000674010B5144B1B78002B11D1134C134A1449AA
:406300002000FCF70DF8134A13492000FCF736F912491348FDF7FAF901220A4B1A70104B00229A5E002A05DB1F231A401E3B93400C4A1360044A1368802109060B43136061
:4063400010BDC0462C36000800006740A445000898BF001084D71700A0860100DD62001068B7001000E100E010B502490248FCF749FE10BDF04500080000664010B5114BA4
:406380001B78002B0BD1104A10491148FCF7ECFB10491148FDF7BAF901220A4B1A700E4B00229A5E002A05DB1F231A401E3B93400A4A1360064A1368802109060B431360BA
:4063C00010BDC0462D360008F0450008ACBF0010000066406963001070B7001000E100E010B5002803D00B4BD862002000E00A4800280DD1094B1B78002B05D10548FEF75B
:4064000075FD0122054B1A70002801D1FEF79CFD10BDC04600010008010016002E36000870B50400264B1A687023D35C02210B408021C9050B438021C9009068435023697C
:40644000FF2B0AD891687420125A8A1890681D4901401B061B0C0B439360194B1A687323D35C032199407023D35C7220105C1D0085402943022003400B43802109060B43E6
:406480008021C9009068435093685B580E4D00212800FDF7F3FFA1682800FDF7D5FE01238022520200212800FEF758F96368012B05D90122802149022800FEF77BF970BD6C
:4064C00014450008FF00FFFF00001D4110B5074B1B79002B09D1054B5B79002B05D10122024B5A710248FFF79BFF10BD54360008ACC1001010B5074B1B79DB0706D4FFF7BD
:40650000E5FF044A117901230B4313710248FDF7F5FF10BD5436000800001D41002243088B4274D303098B425FD3030A8B4244D3030B8B4228D3030C8B420DD3FF2209027F
:4065400012BA030C8B4202D31212090265D0030B8B4219D300E0090AC30B8B4201D3CB03C01A5241830B8B4201D38B03C01A5241430B8B4201D34B03C01A5241030B8B4227
:4065800001D30B03C01A5241C30A8B4201D3CB02C01A5241830A8B4201D38B02C01A5241430A8B4201D34B02C01A5241030A8B4201D30B02C01A5241CDD2C3098B4201D3E0
:4065C000CB01C01A524183098B4201D38B01C01A524143098B4201D34B01C01A524103098B4201D30B01C01A5241C3088B4201D3CB00C01A524183088B4201D38B00C01A3B
:40660000524143088B4201D34B00C01A5241411A00D20146524110467047FFE701B5002000F0F0F802BDC0460029F7D076E7704703460B437FD4002243088B4274D303093B
:406640008B425FD3030A8B4244D3030B8B4228D3030C8B420DD3FF22090212BA030C8B4202D31212090265D0030B8B4219D300E0090AC30B8B4201D3CB03C01A5241830B99
:406680008B4201D38B03C01A5241430B8B4201D34B03C01A5241030B8B4201D30B03C01A5241C30A8B4201D3CB02C01A5241830A8B4201D38B02C01A5241430A8B4201D3AC
:4066C0004B02C01A5241030A8B4201D30B02C01A5241CDD2C3098B4201D3CB01C01A524183098B4201D38B01C01A524143098B4201D34B01C01A524103098B4201D30B01EE
:40670000C01A5241C3088B4201D3CB00C01A524183088B4201D38B00C01A524143088B4201D34B00C01A5241411A00D201465241104670475DE0CA0F00D04942031000D315
:406740004042534000229C4603098B422DD3030A8B4212D3FC22890112BA030A8B420CD3890192118B4208D3890192118B4204D389013AD0921100E08909C3098B4201D37F
:40678000CB01C01A524183098B4201D38B01C01A524143098B4201D34B01C01A524103098B4201D30B01C01A5241C3088B4201D3CB00C01A524183088B4201D38B00C01A79
:4067C0005241D9D243088B4201D34B00C01A5241411A00D20146634652415B10104601D34042002B00D54942704763465B1000D3404201B5002000F005F802BD0029F8D0D2
:4068000016E770477047C046002B11D1002A0FD1002900D1002802D00021C943081C07B4024802A14018029003BDC046D9FFFFFF03B4684601B5029800F050F8019B9E46F0
:4068400002B00CBC7047C046F0B54F464646C0B41604360C9946330005042C0C070C150C63437E436F4365431C0CAD1964199C46A64203D980235B02984647446346250CAF
:40688000EF191D044B464A4343432D0C240464199918C91920000CBC90469946F0BDC04670B500220C4B04000D0001F027FD002804D12000290001F02BFC70BD064B002288
:4068C0002000290001F0D0F801F022FC80231B069C466044F1E7C0460000E041F0B54D46564644465F46F0B4924683B004000D0099468B422FD82CD04946504601F026FD93
:4069000029000600200001F021FD331A9846203B9B4600D574E053465A4693401F005346424693401E00AF4229D826D05B46A41BBD41002B00DA79E000220023009201931D
:4069400001235A4693400193012342469340009319E08242D0D900220023009201930C9B002B01D01C605D600098019903B03CBC90469946A246AB46F0BDA342D6D900225F
:406980000023009201934346002BE8D0FB0772081A4346467B080EE0AB4201D1A2420CD8A41A9D41012024196D410021013E24184D41002E06D0AB42EED9013E24196D4111
:4069C000002EF8D15B460098019900196941002B22DB2B005A46D3402A004446E2401C005B461500002B2CDB26009E40330026004746BE403200801A994100900191AEE7E5
:406A0000424620239B1A5246DA40414613004A468A4017001F4382E7424620239B1A2A0046469A402300F3401343D5E74246202300219B1A0022009101920122DA4001921F
:406A400082E74246202326009B1ADE402F00B446974066463B003343C9E7C046F0B5564644465F464D46F0B444024600C70F83B08846650A360EBA463DD0FF2E22D00023CA
:406A8000EC00802599469B46ED0425437F3E43465C025800DB0F640A000E984636D0FF2830D080230021E400DB041C437F38301A0190484642460843724E800030587A4064
:406AC00013008746002D44D108239946063B9B46DDE70122FF2000241A406402C305640AD2071C431443200003B03CBC90469946A246AB46F0BD002D20D104239946033B31
:406B00009B46C4E7002C17D1022102E0002C0AD10121321A01924A4643460A435A48920082587B409746200001F0F2FB431F76309C4040420021BAE70321B8E7280001F09A
:406B4000E7FB431F9D4000237630464299469B469DE70C239946093B9B4698E780240022E403FF20B9E70024C2468B465A465346022AAED0032A7DD0012A31D10122002077
:406B80001A400024A9E70122101A1B2856DD1A4000200024A1E78023DB031D424BD18023DB032B435C02640A3A00FF2095E76D016001854230D2019A0024013A01921B22F0
:406BC0000127290064006D00002901DBA84201D82D1A3C43013A002AF3D16A1E95412C4301987F300028CEDD620704D00F222240042A00D00434220103D5244A0198144078
:406C00008030FE2800DD64E70122A401640AC0B21A4062E72C00A9E72D1A1A220124CFE76B02BCD500248023DB031C436402640A4246FF2051E71C42B3D1F4E7210020221C
:406C4000C140101A8440621E94410C43620704D00F222240042A00D00434620104D5012201201A40002438E70122A401640A1A40002032E78023DB031C436402640A524649
:406C8000FF202AE714D2001054D20010FFFFFFF7F0B557464E4645464300E0B446028846760A1F0EC40F002F47D0FF2F25D0002380259A469946F600ED042E437F3F434627
:406CC00042465D02D20F5B006D0A1B0E904640D0FF2B39D080220020ED00D20415437F3BFB1842465746591C62408C4607430F2F5CD86F49BF00C9598F46002E45D1082367
:406D00009A46063B9946DAE7424602282DD0032800D1C3E0012800D0A2E0002500260240D4B27602ED05760A2E43E407264330001CBC90469946A246F0BD002E1AD1042375
:406D40009A46033B9946BAE72A00511E8A41901CC6E70120002DC3D0280001F0D9FA431F76309D4043420020BAE70124FF2514400026D6E7300001F0CBFA431F9E400023F7
:406D8000763047429A46994699E70C239A46093B994694E780260024F603FF25C1E735004846B2E7350022004846AEE72904090C0800370C3604360C2C0C794370436743F9
:406DC0007443060C64183619B14203D980214902884647440004000C310409188D01681E8541890E2943350CED19AD010D43290104D5012369081D4063460D4319007F31AC
:406E0000002925DD680704D00F202840042800D00435280103D5274980330D401900FE29A3DC0124AD016E0A1440CDB279E78020C003064207D0054205D128434602760A98
:406E40004446FF256DE706437602760AFF2568E70124611A1B2905DD14400025002660E76346CBE72E002023CE40591A8D406B1E9D412E43730704D00F233340042B00D0CC
:406E80000436730104D5012401251440002648E70124B601760A1440002542E780260124F6032E437602760A1440FF2539E7C04694D20010FFFFFFF770B5002830D0C317FD
:406EC000C5185D40C40F280001F022FA9E231B1A962B0DDC9622D21A95406A02520AD8B25202C005520AE40702432243100070BD992B19DC9922D21A9540124A2A406907F3
:406F000004D00F210D40042D00D00432510103D50C4B1A409F231B1A9201520AD8B2DFE7002400200022DBE705222E00121AB921D6402A00C91A8A40551EAA41350015435D
:406F4000DBE7C046FFFFFFFBF0B556464D4644465F46F0B41D000E034C00CB0F87B0070092468146360B640D98466AD06D4B9C4235D08022430F12041343F6001E43C3009A
:406F80009946694B00279C460023644402932B0368001B0BED0F51469B46400D009500D178E0604B98426CD05B46DA004B0F802109040B4313439B465346D9005A4B9C46D8
:406FC000002360444246201A6A40924601901F430F2F00D9B0E05548BF00C0598746374300D088E0002399460233082700260293CDE74346B34649460093029B009A924670
:40700000022B00D0BFE1002153460122002689461A40444B002136030C0D2405360B2643434C1B0526401E437600D207760816434846310007B03CBC90469946A246AB461A
:40704000F0BD330003434FD0002E00D1BCE1300001F05EF903000B3B1C2B00DDADE11D220100D31A08393A008F408E40DA40B9461643304B00279C4600236044444202939F
:4070800085E753465A4613432CD1002300219B46023397E70B4320D05B46002B00D19EE1584601F035F903000B3B1C2B00DD8FE102005946083A91408B461D21CB1A5146CD
:4070C000D9400B0059460B4351469B469140194B9C4660444042002374E7002300219B4601336FE703236DE70023994601330427002602934BE703230C27029347E7012296
:40710000D51A382D00DCB0E153461A4000210023002689467EE700238026994600223603004B77E7FF07000001FCFFFFD4D20010FFFF0F80F30300005E4500D972E100D177
:407140006DE1019B4D46013B01930023340002935B461E020B0E1E430B020393330C994633041B0C494620000093FFF7D7F9009B370043430600494620009846FFF754FA45
:407180002C0C09040C43A04509D9E419731EA74200D95CE1A04500D859E1023EE4194346E41A49462000FFF7B9F90300009A80465343494620009B46FFF736FA2A040904EB
:4071C000120C0A4393450DD94346D219013B974200D93AE1934500D837E102235B429C46D219E0445B46D21A4346360433439B460399180C0B0C1D00059309045B46090C78
:407200000C001B041B0C4443049159436B4368431B190D0CEB189C4203D980246402A44660441C0C09041B04090C20185D18824200D2DEE000D1D7E0161A029B9C465D1B30
