:020000041000EA
:4000000000400208230100100D00000085010010000000000000000000000000000000000000000000000000000000008101001000000000000000008101001081010010E9
:400040008101001081010010810100108101001081010010810100108101001081010010810100108101001081010010810100108101001081010010810100108101001060
:400080008101001081010010810100108101001081010010810100108101001081010010810100108101001081010010810100108101001081010010810100108101001020
:4000C00010B5064C2378002B07D1054B002B02D0044800E000BF0123237010BDE03300080000000064270110084B10B5002B03D00749084800E000BF07480368002B00D1CD
:4001000010BD064B002BFBD09847F9E700000000E4330008642701107C050008000000007047FFF7FDFF72B60F4C104DAC4209DA21686268A368043B02DBC858D050FAE7B3
:400140000C34F3E70A490B4A0020521A02DD043A8850FCDC084809490860BFF34F8F00F0FBFB00F04BF9FEE70046031018460310E0330008C04A00080000000808ED00E0F7
:40018000FEE7FEE700B504207146084202D0EFF3098001E0EFF30880043005F0CFFBFEE710B533F0F7FD10BD10B580B205F084FB10BDC04610B5074C03E0013C012005F006
:4001C0007BFB0549054804F0D9F9C30301D5002CF3D110BD10270000384A00080000674070B51E78551C8023DB009D4219D80E4B1870002304E0581CCC5C0B4B1C540300A0
:400200009342F8D309490E70074B4B608D6000230B73074A074804F079FAFFF7CBFF002001E00220404270BD0034000800380008384A000800006740F0B583B00D00170081
:400240006A46D07107321B780D4C237062600123A36023730B4E320021000B4804F056FAFFF7A8FF6560A7600023237332002100054804F085F9FFF79DFF002003B0F0BDCD
:4002800000380008384A00080000674070B50C00284B984215D004D880235B01984207D047E0254B98421AD0244B984224D040E00021002007F05CFA2149224803F0E8FAEF
:4002C00037E0214C002323740021002007F050FA1E491C4803F0DCFA0123636129E002221B480AF07EFE184C012525741949154803F0CEFA65611CE008000C3007F0BEFB69
:40030000E06819F0F7FB2389132B12D123681B78DB0707D501220C4B1A760F49094803F0B7FA06E00022084B1A760C49054803F0AFFA70BD08400000015000000C5000002F
:4003400090E400100000664000380008B0E40010A4490008D4E40010E8E4001000E5001010B594B01C4B1B7C002B33D012AA129013910DAB0D9208229A800FAC0A32228175
:40038000220003CB03C2200007F054FB2100134807F00EFC002804D11149124803F078FA18E0114B984204D110490E4803F070FA10E00F4B984204D10E490A4803F068FA89
:4003C00008E002000C4968460BF0C8FB6946054803F05EFA14B010BD00380008A44900081CE50010000066401700160034E50010FF00160060E5001078E50010F0B593B079
:4004000062B608F0F7F808F0B1F9BC4B1B6858680023022200210BF0F1FAB94B01255D6002225A6002325A6008F09EF8B54B1C0020346572B44A9A65B44ADA65B44A1A6643
:40044000B44A5A628022DA8500225A63B2480BF0CBFA200001F048FF011E03D0AF480BF047FAFEE711A801230370A64A2032012100F086FE011E03D0A9480BF039FAFEE7A8
:40048000A8480BF0B1FAA8480BF0AEFA0024002517E09C49203107A800F0DAFE00280CD107AB1020185E09F067FAA04908F0CAFF011C281C08F086FC051C642005F0E2F975
:4004C0000134312CE5DD9A49281C08F0F1FD05900AF0FAFC02000B0096480BF009FA964808F0BAF801E033F055FC944B1B78022BF9D1934806F008FE4D270024814B5B69E8
:40050000012B0AD17E4D0826AE60FA20800005F0B9F96E6000227B4B5A617A49203107A800F096FE00285ED107AB1020185E09F023FA7E4908F086FF059909F097F8051C64
:40054000804908F001FB002807D0FF218905281C08F0E6FA002800D000257B49281C08F071FF011C201C08F02DFC041C774908F0EBFA002800D0754C7549201C08F0D0FABC
:40058000002800D0724C7349201C08F0C9FA00280BD0201C0AF098FC02000B004C2100916D480BF0A5F94C2721E06C49201C08F0CBFA00280BD0201C0AF086FC02000B00C2
:4005C0005221009166480BF093F952270FE0201C0AF07AFC02000B004D21009161480BF087F94D2703E001005F480BF081F95F4D0021280005F0F0FF0121280006F004F8F5
:400600000021280006F07CF806000121280006F077F802000121280006F0CCF8051C0AF053FC0290039102000B0051480BF060F9504A514B0298039908F056FA002807D00F
:400640002F4B01229A6001325A6002325A6020E04A49281C08F082FA00280DD00021281C08F058FA002807D1254B01225A6001329A6002325A600CE04049281C08F050FAA6
:40068000002806D01E4B01225A6001325A6002329A6032000021354806F08CF8051C0AF013FC374A374B0290039108F0FFF9002808D1354A354B0298039908F00BFA0028F3
:4006C00002D102E0002500E0314D324E390030000BF00EF9281C0AF0F7FB02000B002E480BF006F9211C281CFFF73AFE642005F0C9F8390030000BF0FBF8FFE638050008C0
:40070000800432400038000839020010E1010010A9010010C00000088CE50010B0E50010C4E50010E0E50010ECE5001023DB793D000048421CE600108D020010104A0008DE
:40074000A10100100000C0BFCDCCCC3D00003442000034C20000F0C130E600100000F04150E6001070E6001090E6001000001D41A4E60010713D0AD7A370F93F0000E03F0F
:400780009A9999999999B93F52B81E85EB510A4033335340BCE60010C8E6001010B5002002F0CEFF10BDC04670B56249E0239B00CB580F2213401A00D03292005258072102
:4007C0000A40032A05D0042A06D0002A12D15A4814E05A4A106811E01A00C0329200554952581F210A40112A06D0132A04D0FA20C00103E0524801E080200002002B36D15A
:400800004C4BB222D2009A5801211140B125ED005A59120F032422405B591B0F1C4207D0444C63591B0F03242340012B02D102E0012300E00023002B01D0002901D1032AB7
:400840004BD13C4BB022D2009D58AD03AD0B3D495958C904C90C9C58240E01231C40013407F098FF6843210007F094FF35E0012B33D1304BC822D2009A5801251540C0246F
:40088000E4001A59120F03210A401B591B0F194207D028490B591B0F03210B40012B02D102E0012300E00023002B01D0002D01D1032A12D11F4DC022D200AB587F210B40F3
:4008C000A958090A1F263140AC58240C3440584307F060FF210007F05DFFE0239B00154AD3581B0903221340D840144C6060164B1D692D0AFC32154001351969090E013183
:4009000007F048FFA060290007F044FF0500E06020610E4BC0180E4907F03CFF20750D4BE818FA21890007F035FFA061C003E06170BDC0460000264000127A00C4000008E4
:4009400000366E0184050000000021403F420F0040420F00E703000010B5284805F0CAFC274CB022D200A3585B005B08A350E0218900635830208343635080235B04A35027
:40098000204A214BE250A02292010433E250FF221E4BE25005F09CFCC0225200A35801218B43A35001F000FFFFF7FEFEB0235B055B78002B04D0B0235B055B78DBB200E0BC
:4009C0002123212B03D1124B0022DA605A60114C22008021042002F013FC2000103002F0EDFC0D4B1A685123D35C002B02D00B4802F05AFD02F03EF810BDC046EC0E011084
:400A00000000264001000200840500008C050000E000234088380008A8490008D4E600108023024AD358032018407047000021400A784B781B02134303808A78CB781B021B
:400A4000134343800A794B791B0213438380704730B583B004000D000622002168460AF0C9FA0022A35E6A4613800222A35E6A4653800422A35E6A4693802B23EB5C002B54
:400A800005D12833EB5C5B009B5E238006E02823EB5C5B006A469B5E5B4223802C23EB5C002B06D12933EB5C5B006A469B5E638006E02923EB5C5B006A469B5E5B426380EC
:400AC0002D23EB5C002B06D12A33EB5C5B006A469B5EA38006E02A23EB5C5B006A469B5E5B42A38003B030BDF8B517684D1CADB27E5C8C1CA4B27D5D2D0235430580176863
:400B0000CD1CADB23E5D0C1DA4B27D5D2D0235434580156805318AB22C5DAA5C1202224382801900FFF794FFF8BDC04610B514680B88E418A3781A0463781B0224781343C4
:400B4000234383600B8803330B8010BD70B504000D0016007C33DAB2182A00D9CEE09300694AD3589F460988049B1B7FCB18049A9288934202DD2A800020C3E033885A00CA
:400B8000D31898002018059B049AFFF7ADFF2B8806332B80059B1B6B5B0308D533885A00D31898002018049A2900FFF7BFFF3388013333800220A5E00988049BDB7FCB18A1
:400BC000049A9288934202DD2A8000209AE033885A00D3189800063189B22018059B049AFFF782FF2B880C332B80059B1B6B5B0308D533885A00D31898002018049A2900B9
:400C0000FFF794FF33880133338002207AE009882023049AD35CCB189288934202DD2A8000206FE033885A00D3189800049B9B7FC91889B22018059B049AFFF755FF2A88C3
:400C4000049B9B7FD31806332B80059B1B6B5B0308D533885A00D31898002018049A2900FFF764FF33880133338002204AE009882223049AD35CCB189288934202DD2A80AF
:400C800000203FE033885A00D3189800049B9B7FC918063189B22018059B049AFFF724FF2A88049B9B7FD3180C332B80059B1B6B5B0308D533885A00D31898002018049AB3
:400CC0002900FFF733FF338801333380022019E00A8821230499CB5CD3182B80022011E00A88049B9B7FD3180B8002200AE00A88049B5B7FD3180B80022003E0049B9B888E
:400D00002B80012070BDC04608E70010030000B28B4201DD08B203E0CA43934200DA10B27047C04610B504000023C05E4423CB5E0421625E5343DA17D205D20DD3185B1269
:400D40001BB2C01A0249FFF7E1FF208010BDC046FF7F000000280AD0836B002B0AD0C36B002B0AD0036C002B0AD000200AE00120404207E00120404204E00120404201E07F
:400D8000012040427047C04670B500230FE05C00E418556AAC46644425788D4205D1032221000AF01EF9012005E00133DBB2947EA342ECD3002070BD70B50023002521E01A
:400DC000C45C012C0BD0002C04D0022C0CD0202C0FD013E0012416683443146010E002241668344314600BE0042416683443146006E0012456683443546001E008256D4269
:400E00000133DBB28B42DBD3280070BDF0B5A3B007000C0016001D001800FFF79BFF0190002831D1002C33D06B7A002B02D1803B1F43FFB2EA7AB2186B6802A93800AF6BA2
:400E4000B847A8724723EB5C012B05D16968E12040002B6C984703E0696802202B6C98470A23EB56002B0BD002235B42019312E0EA7A9A1802A98A5CE25401339BB200E0D8
:400E80000023B342F4D306E001235B42019302E001235B420193019823B0F0BDF0B54F464646C0B483B00700884691461C001800FFF750FF0190002842D14346002B43D0A3
:400EC000637A002B01D17F331F404723E35C012B19D114E0434659197819C0B263680122E66BB047A0726168E1204000236C98470A23E356002B11D10135ADB200E0002589
:400F00004D45E7D30AE063684A4641463800E56BA847A07261680220236C98477C2F0AD143461B78DB0703D501224723E25402E000224723E2540A23E356002B0BD007E0A1
:400F400001235B42019306E001235B42019302E002235B420193019803B00CBC90469946F0BDC04670B582B0040016001D00002814D04B080F221A4001A90A701B094B70B2
:400F80002B0002225B20FFF789FF002808D12B00320021005E30FFF781FF01E00120404202B070BD30B583B004000D006B46D91D00230B702B0001225920FFF727FF00288A
:400FC0000BD16B46D91D0B780122934314401C430C702B005930FFF761FF03B030BDC04670B582B004000E0015006B46D91D00230B70130001227D20FFF708FF00282DD15A
:40100000E30705D56B46DA1DD97904230B431370A30705D56B46DA1DD97902230B431370630705D56B46DA1DD97901230B431370F30705D56B46DA1DD97908230B43137089
:4010400007231C400121314023000B4306D02B000122694607317D20FFF720FF02B070BD30B583B005000C0000226B46DA710800FFF770FE002821D1230001226946073150
:401080007C30FFF7C3FE002818D16B46D91D0B780122934315401D430D7023007C30FFF7FDFE002801D00D204042002806D16B4607331B78012213404632A35403B030BDFD
:4010C000F8B504004A23C75AC189380007F0E8FB8DB2EEB221000020FFF7C2FF00284DD12100FFF75FFF002848D1002E0BD010E063695819E28923002900FFF733FFE38901
:40110000ED18ADB200E00025BD422BD20028EFD028E0FF210D407D1BADB2002609E063699819E28923003100FFF71CFFE389F618B6B2AE4201D20028F1D0002812D1E68993
:401140000223E38109E063695819E28923002900FFF708FFE389ED18ADB2BD4201D20028F1D0E681002809D121000130FFF71AFF002803D121000130FFF772FFF8BDC04647
:4011800070B582B004000E00150000220023009201932800FFF7DEFD00280ED1002C0FD06A4631002000FFF707FE00280AD12A0000980199FFF714FF04E00120404201E06F
:4011C0000120404202B070BDF0B583B005000E0001921000FFF7BEFD041E31D1002E32D001210023320018325F1C481C695CD154FBB2C1B2072BF5D9290009313000FFF7A7
:4012000017FC01993000FFF723FC37000C3729000F313800FFF70CFC01993800FFF782FD01993800FFF714FCEB7D1A04AB7D1B02697D13430B4333622A782423F25404E087
:401240000124644201E001246442200003B0F0BD30B587B004000D0000280DD00B00182269460320FFF7D2FD002807D12A0021006846FFF7A9FF01E00120404207B030BDAA
:4012800070B505000C000800FFF764FD00280CD1002D0DD061680848236C98472300012229002120FFF7B2FD04E00120404201E00120404270BDC046204E000030B583B0EA
:4012C000040000226B46DA71FFF744FD002821D14A23E35A002B20D0E389DA0701D5013BE381E389012B01D80223E3812000FFF7E7FE002816D16B46DD1D21002800FFF705
:40130000BFFF2B780F221340637400280AD1012B08D005E00120404204E00120404201E00920404203B030BD30B583B00500B6226B46DA7100226B469A71FFF70BFD041EC0
:4013400027D12B000122694607317E20FFF7A6FD04006968FA20C0002B6C984701224723EA54002C09D16B7A002B06D12B00694606310020FFF74AFD0400002C03D1280092
:40138000FFF79CFF0400002C03D1002200232A636B63200003B030BD10B582B0040000226B46DA7106321B49684609F01AFE2000FFF7D0FC00282BD101224723E254637A1E
:4013C000002B04D1230069460731FFF71FFD00281ED12300012269460731FFF717FD002816D122786B4607331B789A420DD1102323730F3BE376200028300622694609F0EE
:40140000F0FD2000FFF790FF02E023700320404202B010BD6CE70010F0B54F464646C0B483B0894615006B46D87100294AD0002A4BD0127EC3B29A424AD92B00012269464A
:4014400007312F20FFF72AFD002832D1EB890F2B2FD8DA0725D5013BEB8122E0A2B2E889824210D3494641442B0002003800FFF7CDFCAC7B43461B19DBB298463F19FFB267
:401480003619F6B207E0494641442B003800FFF7BDFCA419E6B21024A31BDCB2002805D018E000239846302700261024002CD5D110E000280ED12B00102249463030FFF7A1
:4014C000A5FC07E00120404204E00120404201E00A20404203B00CBC90469946F0BDC04630B587B004000D001022002102A809F081FD01AB00221A705A709A704823EB5A4D
:401500009B0612D52B000132694607311E20FFF77DFC002828D16B4607331B785A0602D5803B238020E023801EE02A00292101A8FFF72AFC002815D001AB58782A0002A9C5
:40154000FFF76AFF00280FD101AB9B7802AAD35C7F2213403F3A1A4202D0803B238003E0238001E00820404207B030BD30B587B004000D001022002102A809F03BFD01A8B8
:4015800000230370437083702A000921FFF7FCFB00281AD001AB58782A0002A9FFF73CFF002814D101AB9B7802AAD35C01210A001A4022705A100A4062709A100A40A270CF
:4015C000DB1007221340E37001E00820404207B030BDC046F0B5474680B482B007008846140001921000FFF7B5FB002834D1002F35D04723E65C00242BE0A3001B199A0085
:40160000BD182B78032B05D9012E03D101990020FFF726FD002812D12B78092B06D0292B09D1281D0199FFF75BFF06E0281D0199FFF79CFF01E008204042002811D1012E21
:4016400005D1002803D101990130FFF709FD0134E4B24445D1D304E00120404201E00120404202B004BC9046F0BDC04610B586B004004823C35A9B0712D5FFF76BFB00283F
:4016800011D101A82923037022000121FFF7A2FF00280AD101AB04229A5E4423E25204E00820404201E00120404206B010BDC04670B500230FE05C00E418156AAC4664445A
:4016C00025788D4205D10322210009F08AFC012005E00133DBB2547EA342ECD3002070BD00280AD0836B002B0AD0C36B002B0AD0036C002B0AD000200AE00120404207E029
:401700000120404204E00120404201E0012040427047C04670B50023002654E0C45C222C4DD8A4002A4D2C59A746012415682C43146046E0022415682C43146041E0042402
:4017400015682C4314603CE0012455682C43546037E0082415682C43146032E0102415682C4314602DE0202415682C43146028E0402415682C43146023E0802415682C438F
:4017800014601EE08024640015682C43146018E08024A40015682C43146012E0042455682C4354600DE08024240315682C43146007E08024640315682C43146001E008263C
:4017C00076420133DBB28B42A8D3300070BDC04674E7001070B500230FE05C00E418556AAC46644425788D4205D10322210009F0F8FB012005E00133DBB2947EA342ECD381
:40180000002070BDF0B587B005000C001022002102A809F0EFFB01A8002303704370837022000421FFF744FF00284BD001AB5878220002A9FFF7F0FD002845D101A98B78CF
:401840005B085E0002AA9446664432882888520B5703C204D20C3A4312B2A88840031B4F3A408027BF013840024310B2EA889203174F07408020C00102403A432889C003EC
:401880005204520C02433280581C4000604406886A88F50AED025205520D2A43028002335B00DBB28A789A1AD2B2002301E00133DBB29342FBD32300102202A93020FFF70D
:4018C000EDFA01E00820404207B0F0BDFFDFFFFFFFBFFFFFF0B587B005000C001022002102A809F087FB01A8002303704370837022000521FFF7DCFE00284BD001AB587859
:40190000220002A9FFF788FD002845D101A98B785B085E0002AA9446664432882888520B5703C204D20C3A4312B2A88840031B4F3A408027BF013840024310B2EA88920339
:40194000174F07408020C00102403A432889C0035204520C02433280581C4000604406886A88F50AED025205520D2A43028002335B00DBB28A789A1AD2B2002301E0013381
:40198000DBB29342FBD32300102202A93020FFF785FA01E00820404207B0F0BDFFDFFFFFFFBFFFFF30B587B005000C001022002102A809F01FFB01A8002303704370837089
:4019C00022000321FFF774FE002821D001AB5878220002A9FFF720FD00281BD101AA93785B0859002D8802A8455201335B00DBB292789A1AD2B2002301E00133DBB2934250
:401A0000FBD32300102202A93020FFF747FA01E00820404207B030BDF0B55F4656464D464446F0B489B007000C0001911022002104A809F0DFFA03A80023037043708370E5
:401A400022001D21FFF734FE002843D003AB5A7890460332D2B291469B789B460233DBB29A46454600240826002030E0019A04A92800FFF7D1FC002827D1454501D9002340
:401A80009B464D4501D153465E085B465B0808E05A006100785A04A988520133DBB20134E4B29E42F4D85B00DBB203AA92789A1AD2B2002301E00133DBB29342FBD3019BCF
:401AC000102204A93020FFF7E9F90135EDB24D45CCD901E00820404209B03CBC90469946A246AB46F0BDC046F0B587B005000C001022002102A809F07DFA01A800230370BD
:401B00004370837022000721FFF7D2FD002832D001AB5878220002A9FFF77EFC00282CD101A98B785B085E0002AA9446664432882888920A97028205920D3A4312B2688854
:401B400080020F4D2A408025ED0028400243328001335B00DBB28A789A1AD2B2002301E00133DBB29342FBD32300102202A93020FFF794F901E00820404207B0F0BDC046A6
:401B8000FFFBFFFFF0B589B005000C0001911022002104A809F02EFA03A8002303704370837022001321FFF783FD002834D003AB5878220004A9FFF72FFC00282ED103A96C
:401BC0008B785B085F0004AEF7193C882A88100110229443024022433A805A1C52006888B0529A1C5200A888B052DA1C5200E888B05204335B00DBB28A789A1AD2B2002343
:401C000001E00133DBB29342FBD3019B102204A93020FFF743F901E00820404209B0F0BD70B586B005000C001022002102A809F0E1F901A8002303704370837022001421F9
:401C4000FFF736FD002836D001AB5878220002A9FFF7E2FB002830D101A98B785B08581C02AA40002E881652981C40006E881652D81C4000AE881652181D4000EE881652C3
:401C8000581D40002E891652981D40006D89155207335B00DBB28A789A1AD2B2002301E00133DBB29342FBD32300102202A93020FFF7F4F801E00820404206B070BDC04694
:401CC00010B534234B43C0180378033BD9B21A2926D88B001449CB589F4602301100FFF791FD1FE002301100FFF7F4FD1AE002301100FFF757FE15E002301100FFF78CFEBD
:401D000010E002301100FFF7EFFE0BE002301100FFF738FF06E002301100FFF781FF01E00820404210BDC04600E8001030B587B004000D001022002102A809F05BF901A81D
:401D400000230370437083702A000321FFF7B0FC002812D001AB58782A0002A9FFF75CFB00280CD101AB9B785A1CD2B202A9CD5C8B5C1B022B43238001E00820404207B0A6
:401D800030BDC046F0B587B004000D001022002102A809F02FF901A800230370437083702A000421FFF784FC00282AD001AB58782A0002A9FFF730FB002824D101AB9A780C
:401DC000561CF6B202A98F5C951CEDB28B5D1B023B43DE04F60C26805F130126B4463740A7809E1367463E40E680DB0B23810332D2B24D5D8B5C1B022B435B055B0D638059
:401E000001E00820404207B0F0BDC046F0B587B004000D001022002102A809F0EBF801A800230370437083702A000521FFF740FC00282AD001AB58782A0002A9FFF7ECFA31
:401E4000002824D101AB9A78561CF6B202A98F5C951CEDB28B5D1B023B43DE04F60C26805F130126B4463740A7809E1367463E40E680DB0B23810332D2B24D5D8B5C1B0216
:401E80002B435B055B0D638001E00820404207B0F0BDC046F0B55F4656464D464446F0B489B081460C0000911022002104A809F0A1F803A8002303704370837022001D21F8
:401EC000FFF7F6FB00283ED003AB5A7893460332D2B292469B7801930233DBB298465F4600241026002500202AE0009A04A93800FFF792FA002821D15F4501D900230193F6
:401F0000574500D14646019B8446484612E05A1CD2B204A9C95C964205D90233DBB204ADAD5C2D0200E013000A002A43610042520134E4B29E42EAD8814660460137FFB273
:401F40005745D2D901E00820404209B03CBC90469946A246AB46F0BD30B587B004000D001022002102A809F045F801A800230370437083702A000721FFF79AFB002818D071
:401F800001AB58782A0002A9FFF746FA002812D101AB9B785A1CD2B202A9CD5C8B5C1B022B439A05920D22809B1201221340638001E00820404207B030BDC04630B587B059
:401FC00004000D001022002102A809F013F801A800230370437083702A001321FFF768FB00281ED001AB58782A0002A9FFF714FA002818D101AB9B785B0802A95A008A5AAC
:40200000121101252A4022805A1C52008A5A62809A1C52008A5AA28003335B00CB5AE38001E00820404207B030BDC04630B587B004000D001022002102A808F0DBFF01A8BC
:4020400000230370437083702A001421FFF730FB002824D001AB58782A0002A9FFF7DCF900281ED101AB9B785B08591C02AA4900515A2180991C4900515A6180D91C4900B5
:40208000515AA180191D4900515AE180591D4900515A218106335B00D35A638101E00820404207B030BDC04610B534234B43C0180378033BD9B21A2926D88B001449CB58D1
:4020C0009F4602301100FFF731FE1FE002301100FFF758FE1AE002301100FFF797FE15E002301100FFF7D6FE10E002301100FFF733FF0BE002301100FFF760FF06E0023045
:402100001100FFF793FF01E00820404210BDC0466CE80010F0B587B004000D001022002102A808F067FF01A800230370437083702A000721FFF74EFB00281DD001AB5878F5
:402140002A0002A9FFF768F9002817D101AB9B785E1CF6B202ADEF5C9A1CD2B2A95D090239430333DBB2AA5C12041143EA5C12060B001343236001E00820404207B0F0BD1D
:4021800030B587B004000D001022002102A808F031FF01A800230370437083702A000821FFF718FB00280DD001AB58782A0002A9FFF732F9002807D101AB9B7802AAD35C7B
:4021C000237001E00820404207B030BD30B587B004000D001022002102A808F00BFF01A800230370437083702A002721FFF7F2FA00281ED001AB58782A0002A9FFF70CF956
:40220000002818D101AB9B780133DBB202AAD35C012211001940217059101140617099101140A170D9101140E1701B111340237101E00820404207B030BDC04630B587B08F
:4022400004000D001022002102A808F0D3FE01A800230370437083702A002821FFF7BAFA002817D001AB58782A0002A9FFF7D4F8002811D101AB9B780133DBB202AAD35CFE
:4022800059110125294021709A112A406270DB09A37001E00820404207B030BD30B587B004000D001022002102A808F0A3FE01A800230370437083702A001321FFF78AFA07
:4022C00000280DD001AB58782A0002A9FFF7A4F8002807D101AB9B7802AAD35C237001E00820404207B030BD10B50400FFF7F8F900282BD124232370802292012633E2522A
:402300000322023BE252637A002B02D10133E37201E00023E3726369002B01D10C4B63612000FFF739F8002810D10A4B23623433636208232376112262760A3AA276064A95
:40234000E2656022A3542000FFF790F910BDC04664E9001064090110E4000008F0B54F4680B482B006008946140001921000FFF7B7F9021E59D1002E5AD04723E75C00241F
:4023800050E0A3001B19980035182B78092B01D0292B06D1019A01212800FFF71BF9020035E0032B06D9012F04D101990020FEF757FE0200002A2AD12B78073BDAB2212A5F
:4023C00021D893001E4AD3589F46281D0199FFF7A1FE020019E0281D0199FFF7D1FE020013E0281D0199FFF7F1FE02000DE0281D0199FFF723FF020007E0281D0199FFF769
:402400004DFF020001E008225242002A12D1012F06D1002A04D101990120FEF721FE02000134E4B24C45ACD304E00122524201E001225242100002B004BC9146F0BDC046B1
:40244000D8E8001010B504002100034801F0D8F90028F9D010BDC04600006640C2239B00034AD358DB05F9D0D0239B00D058704700006640FEE7C04680221206054B1A6008
:40248000054B064A1360064A1360064A064B1A607047C04600001D410500010000031D4144031D4101001180000E1F4130B587B0AA4A116808230B431360A94C03E0012096
:4024C00003F0FAF9013CA54B1B695B0701D4002CF5D1002C01D1A34B00E00023002B02D00520FFF7C7FFA048A021C900435803229343023A134343509C4A116808688823A8
:40250000CB58C31818689A49084018601368186884241B59C01803681B021B0A80256D042B430360106805680359EB1818680140196013683E229A5C002A06D08A48E021D5
:4025400089004258753CA24342503E229A5C002A06D08548E021890042583024A24342503E229B5C002B07D07F49E02292008B588020000603438B500021012002F018FE55
:402580000021022002F014FE0021032002F010FE0021042002F00CFE0021002002F008FE01A8744903000A0032CA32C312CA12C302F052FE002802D00420FFF75BFF6A499E
:4025C0006D4A8B588020000603438B506B4802F0FFFE002802D00420FFF74CFF624C684BE158684A0A40E250E158674A0A40E250E25880252D062A43E250043BE158634A75
:402600000A40E250E158624A0A40802189010A43E250E258802109020A43E2504F4A11685C4B0B401360002003F034FE5A4BE2582A43E250E158012291430A43E250642172
:40264000002003F093F9494B1B683F229A5C052A06D970229A5C01210A405049986842509A6874215B5AD2185168414B0B408C2189010B4353603D4B1B6873229A5C032168
:40268000914070229A5C7220185C140084402143012002400A43802109060A438021C900986842509A6852583F229A5C062A03D900213B4A986881509A6874215B5AD2181A
:4026C00011682B4B0B40F82149010B431360274B1B687322995C703A8A40110070229A5C7220185C82400A43802109060A438021C900986842509A6852583F229A5C392A7C
:4027000006D970229A5C02210A402649986842509A6874215B5AD2189168154B0B40C42189010B439360114B1A687323D35C032199407023D35C7220105C1C008440214396
:40274000022003400B43802109060B438021C9009068435093685B5807B030BD0000274020A1070002004A0000002640A8490008FF00FFFFC8090110087F0000400D0300D1
:4027800004050000FEFCFFFFFFFF00FFFFF0FFFFFF8FFFFFFFFCFFFF0C050000140C0000180C0000E40C000070B58EB09621002003F0DCF803F0B2F8002814D103F09EF830
:4027C000C0235B00424AD358DB0705D41100414A8B585B005B088B503D493E4A8B588020000603438B50012003F0ECFC3A4A516C3A4B0B40E82189010B435364536C1B0AD0
:40280000FF2213403A2B07D1334A516C344B0B40E82189010B43536401AC34220021200008F0E8FB2F4D22000021280000F02EFA34220021200008F0DDFB2200012128005A
:4028400000F024FAFFF732FE0F22274B1A60274A274B1A6024220021200008F0CBFB2100280000F0ADFB234D22002B00143343CB43C243CB43C243CB43C221001E4800F0D0
:402880009FFB22002B00383323CB23C223CB23C223CB23C22100194800F092FB24220021200008F0A7FB164BE3602100154800F087FB24220021200008F09CFB05230193C7
:4028C0002100114800F07CFBFFF7D6FD0EB070BD000026400C05000000002740FF00FFFFFFC5FFDF00003240000067400701010000026740C80901108002324000033240B0
:40290000666600008004324000053240C00543425841C0B27047C046214B984230D00ED8402831D004D800281FD010282AD031E080282BD080235B00984229D02AE0194B9F
:40294000984229D007D8A0231B0698420DD0164B984212D01EE0154B98420AD0144B984209D0144B984215D101E0002016E0124814E0124812E0124810E0A020C0030DE05F
:4029800007480BE00F4809E00F4807E00F4805E0034803E00E4801E0A420C0037047C04606005200010000F0090000A0040000F0050000F0030000F0010052000200520005
:4029C00003005200010050000200500005005200FF00520070B5124B1A683123D35C002B04D1C421FF310F4802F072FF0C4B1D682C00B423EB582A6A944663441B68002BFC
:402A00000BDB094B1868FFF787FF6B6801229A6063689B68002BFBD100E0044870BDC046A8490008240A0110183A00080200500010B50D4B1861002805D002230370FD330D
:402A4000437000234380094B1B6850229A5C002A08D051229B5C002B04D04F3A0449002000F0DCFD10BDC046183A0008A8490008F505000810B502481430FFF7D9FF10BD3E
:402A8000183A000870B504000D00FFF73FFF002836D0002D36D0FDF787FE1B4B1B4A1A6000225A609C60DD60194B1B6852329A5C002A1FD01A6884215B58D31819681A68DC
:402AC000120AFF2313405A1C0B0E01335343114C5C43114B1868FA21890005F05BFE0100200005F057FE0D4BC118802040000BF0C7FC08E00021802040000BF0C1FC02E065
:402B0000074800E0064870BD183A000800010005A8490008C0EA2101C8000008482600000600520010B5FFF755FF10BD10B50400FFF7ECFE00283ED0FDF736FEE0225205F4
:402B40001E4B1A601E4B1B78002B05D01B4A1368802149000B431360184B5C6000229A60DA60184B1B6854329A5C002A1ED01A6884215B58D31819681A68120AFF231340A3
:402B80005A1C0B0E013353430F4C5C430F4B1868FA21890005F0FEFD0100200005F0FAFD0B4BC11800200BF06BFC05E0002100200BF066FC00E0074810BDC046183A0008B7
:402BC0000B000016A849000860F59000C8000008980800000600520070B504000D00FFF795FE002842D0002D42D0FDF7DDFDC022D204204B1A60204B1B78002B05D01D4A06
:402C00001368802149000B4313601A4B802252005A609C60DD60194B1B68AD3A9A5C002A1FD01A6884215B58D31819681A68120AFF2313405A1C0B0E01335343104C5C4398
:402C4000104B1868FA21890005F0A4FD0100200005F0A0FDE1239B00C11800200BF010FC07E0002100200BF00BFC02E0064800E0054870BD183A00080B000016A8490008C5
:402C8000808D5B00C800000806005200F8B54F464646C0B406000D001400002800D16FE1002A00D16EE1072903D94521B84802F00FFE2368012B03D94621B54802F008FE28
:402CC0000F2362689A4303D04721B14802F000FE237A1F22934303D04821AD4802F0F8FDE368032B03D94921A94802F0F1FD2369012B03D94A21A64802F0EAFD6369012BBD
:402D000003D94B21A24802F0E3FDA369012B03D94C219F4802F0DCFDE369032B03D94D219B4802F0D5FD236A012B03D94E21984802F0CEFD636A012B03D94F21944802F03D
:402D4000C7FDA36A012B03D95021914802F0C0FDE36A032B03D951218D4802F0B9FD236B072B03D952218A4802F0B2FD2768072D03D98849884802F0ABFD012F04D9CA21E7
:402D80008900854802F0A4FD002F03D10123AB40736002E00123AB40B3606768072D04D9F12189007C4802F093FD0F233A009A4303D07A49784802F08BFDA900784B1A6879
:402DC0007D23D35C9B191A6890460F2291468A40404690430200484607408F4017431F60277A072D04D9A22189006B4802F070FD1F233A009A4303D06A49674802F068FD59
:402E0000674B1A689369F31ADB0952691B01D318032D0AD81968E8001F22824091431F22174087400F431F600AE02A1F5968D2001F20904081431F20074097400F435F6026
:402E4000E768082D04D9DD21C900534802F040FD032F03D95449504802F03AFD6900504B1A687C23D35C9B191A689046032291468A40404690430200484607408F40174375
:402E80001F602769082D03D94849434802F020FD012F03D94649404802F01AFDB36901221100A9408B431740AF401F43B76163699846072D03D93F49374802F009FD434692
:402EC000012B03D93C49344802F002FD34487E230268D35C9B191A6801273900A9408C468A43110042463A40AA400A431A606B0010229046984403210B00424693406246BE
:402F0000134399467F2203689A5C9446B44463461A684B469A43A3693B40AB401A43E3691940434699400A4363461A6002688023D35CF6183368FF22944693431800236A4E
:402F40001F40636A5A00022313403B43A26A9100042739400B431F00E36AD900182319403B000B43226B520161460A401343AD00FE2292001540AB4003433360002002E043
:402F80000E4800E00D480CBC90469946F8BDC046640A011027030000A40A0110C5030000A849000889020000E9060000690600006A060000030400000404000001005A0062
:402FC00070B505000C0000285DD000295DD0FF230A689A4303D099212D4802F079FCFF2322699A4303D09A21294802F071FCA3685B0D03D09B21264802F06AFC63685B0A36
:4030000003D09C21224802F063FCE3695B0F03D09D211F4802F05CFC236A5B0F03D09E211B4802F055FC1B4A11688B69EB1ADB0949691B01CB18216829607D211068415CED
:403040006918E06808607E211068415C6918206908607F211068415C6918606908607C211068415C6918A06808606168A961116880228A5CAD18A2692A60E2691A60226A70
:403080005A60002002E0044800E0034870BDC046640A0110A849000801005A0070B504000D000A4B1A68B423D3581B181B68002B0ADA0B0C03D00649064802F009FC2D0454
:4030C0002D0C6560002000E0034870BDA8490008D5020000E40A011001008A0070B505000C000368002B01DA002300E0084B002B0BD1EA60230C03D00649074802F0E8FB3D
:403100002404240CAC60002000E0014870BDC04601008A00BB020000E40A011070B505000C1E03D19921084802F0D2FB074B1A68B423D3585B191B68002B03DAEB682360CC
:40314000002000E0024870BD240B0110A849000801008A0070B504000D00234B1A683123D35C834236D9002936D00B68DB0635D13123D35C984204D3C421FF311B4802F070
:40318000A7FB194B1B681A6AB0215B5A5C431419174E34602B68DA080021686807F02AFF00212000FFF77AFF3468002D03D111490E4802F08DFB2A0000212000FFF78EFFCC
:4031C00000280DD10A4B18680021FFF767FF002808D108E0084806E0074804E0064802E0064800E0054870BDA8490008E40A0110303A00089303000003018A0001018A0033
:4032000010B50400002A17D1002915D1124B1A683123D35C984204D3C421FF310F4802F057FB0D4B1B681A6AB0215B5A5C4314190B4B1C6000200EE0002A09D0002909D04B
:40324000074B59609A60191D2000FFF783FF02E0044800E0034810BDA8490008E40A0110303A000803018A00F0B583B00D001C4B1B68DC68236883422DD947097B01C01A4E
:40328000012383401E00002903D102F0EAFB019001E000230193124B18680368002B01DA002300E00F4B002B0ED16368BF00DF193B68334203D133433B60002400E00A4C7E
:4032C0000021FFF7EBFE00E0084C002D04D1019802F0CBFB00E0064C200003B0F0BDC046303A000801008A00020188000301880004018A00F0B583B00D001C4B1B68DC68D9
:40330000236883422DD947097B01C01A012383401E00002903D102F0A4FB019001E000230193124B18680368002B01DA002300E00F4B002B0ED16368BF00DF193B68334286
:4033400003D0B3433B60002400E00A4C0021FFF7A5FE00E0084C002D04D1019802F085FB00E0064C200003B0F0BDC046303A000801008A00020188000301880004018A0039
:403380000A4B1B68DA68136883420BD943095901401A0121814052689B009B580B4203D0034802E0034800E003487047303A00080101880004018A0000018800034B1B6845
:4033C000002B01D1014B18607047C0463C3A0008F0B5474680B404000F0090461E002D4B1B68002B03D1B5212B4802F071FA294B1B682C2060431C18FF221500354025607A
:40340000330A13406360360CA660244B1A683123D35C9D4204D3C421FF31214802F058FA1E4B1A68B023D35A6B43116A8C466344236166683223D35C9E4204D3E021FF31BA
:40344000174802F045FA154B1B681D6A80367601AD196561A668330C04D0FF214900104802F036FA330C03D00E490D4802F030FA3604330C1E43AE604346E361276200235A
:40348000A361069B002B02D000229B5EA38104BC9046F0BD3C3A0008640B0110A8490008E40A0110FF010000F0B58FB0041E03D15221294802F00CFA6368032B03D95421F2
:4034C000254802F005FAE36A002B03D15821224802F0FEF9236B002B03D159211E4802F0F7F907AA1300210061C961C321C921C302AD290023001433C1CBC1C141CB41C1A8
:403500000821535E0CAE3380144B1B6836215B5E07998C466344B370089B0D930B9B0A980096A26AE16AFFF753FF2B69E868002200920021FFF74CFF216B300002F040F975
:403540000023F25E002A05DB1F231A401E3B9340034A13600FB0F0BD640B0110A849000800E100E0F8B505000F0016001C00002A03D1FD21224802F0ABF9224B1B68002B76
:4035800003D1FE211E4802F0A3F91E4B1B682C2128004843181879435918012213004D68AB401B044568AA4015000269002A20D08F69002F1FD11268002A01DA002200E01D
:4035C000114A002A19D132681204120C134333600369DE6001238B614C6204692B0C03D00A490B4802F074F92A04120CA260002004E0084802E0084800E00748F8BDC04603
:40360000640B01103C3A000801008A00BB020000E40A011004028A0007028A0070B504000D0016000F4B1B68002B04D1AF2149000D4802F04DF90B4B1B682C2060431C1857
:40364000236A002B04D1B1214900074802F040F9E369B34204D9236AB6009D51002000E0024870BD3C3A0008640B01100A028A0070B582B0040000230193002804D1D221CC
:40368000FF312D4802F024F92369002B04D1E9214900294802F01CF96369002B04D1D421FF31254802F014F9236A002B04D1EA214900214802F00CF96269D5682B0C24D02E
:4036C0001B041360136820691C4B1A68B423D358C3181B68002B18DA01A9FFF71FFD00280ED1019803681E0CFF221340E269934207D29B00226AD358002B02D0984700E062
:40370000002631002069FFF7C9FC2D042D0C0FD063691D601B68636A002B03D098470023636203E0A36A002B00D098470023A36163691B6802B070BD640B0110A8490008AF
:4037400010B50400084B1B68002B04D1B221FF31064802F0BDF8044B1B682C2060431818FFF786FF10BDC0463C3A0008640B011010B50400094B1B689B6CC340DB0703D412
:40378000BE21074802F0A4F8044B1B681B691034A402E3580F20184010BDC046A8490008A40B011030B5C0239B00C3580F242340072B07D900230FE0D024A4000459CC5472
:4037C000013300E000239342F6D307E05C00D025AD0045590D5301339342F7D330BDC04610B51400C2239B00C358DB05DB0D9A4200D31C002200FFF7D5FF200010BDC04665
:4038000003681B0501D5802200E0402282239B00C358DB05DB0D934204D090239B00C150012000E00020704730B580239B00C3580F242340072B07D900230FE0CD5C90246B
:40384000A4000551013300E000239342F6D307E05C00655A9024A400055101339342F7D330BDC04610B5140003681B0501D5802200E0402282239B00C358DB05DB0DD31AD5
:40388000A34200D81C002200FFF7CEFF200010BD30B503681B0501D5802200E0402200240AE082239B00C358DB05DB0D9A42F8D090239B00C55001340D5D002DF1D130BD80
:4038C00003E090239B00C150013A002AF9D1704710B5140003681B0501D5802200E0402282239B00C358DB05DB0DD31AA34200D81C002200FFF7E4FF200010BD10B5546830
:403900003C4B9C4236D1C2239B00C358DB051CD01378002B10D0116A40230B431362C1239B00C158802464022143C150C45832492140C150C35808E0002906D1116A40237C
:403940000B431362D0239B00C358116A20230B431362136A10218B431362016E274B0B4003660021264BC150083B0131C150C3581F3121E08224A4000359DB05D90D035977
:40398000DB0B012423405B18116BC91A5163116A090705D4D16AC918D162916ACB1A9362116A04230B431362136A01218B4313620021144BC1501031134BC4580223FF33A1
:4039C0001C420ED003685B005B08036000238366C3660368802424062343036003684023194380235B055360536C002B01D00800984710BD01100000FFFFFEFFFF5FFFFF11
:403A0000C80F0000880F00004C0F000010B51C4BC3589A071DD5F02212010224845084588258520702D58020800301E0802040038A6802438A604868B8225203904208D04D
:403A40000A7B002A02D0C022520301E0B02252034A60DA0504D58A688020000402438A60DA0704D58A688020C00302438A601222FF32134202D0C0235B034B6010BDC046D6
:403A80000C0F000000230B4A83500B4A8350836E002B04D01822FF32084BC25008E01422FF32064BC25018238366B8235B034B607047C046C80F0000880F0000080F0000BC
:403AC00070B53F4BC458026E3E4B1340036600233D4A83503D4A83503D4A8350F0231B011822FF32C250C3588A683A4B13408B604B7B002B02D08B69CB610CE08D6982262C
:403B0000B6008359DB05DA0D8359DB0B012633409B18EB1ACB610223FF331C421ED0036E9B0F032B06D10233FF331C40631E9C41E4B200E00124002C0CD003685B005B083C
:403B4000036000238366C36603688022120613430360036880235B054B601BE00B78002B10D0C1239B00C258802464022243C250C458184A2240C250C358FC231B010122A8
:403B8000C250C3580B7B002B01D0134B01E080235B054B604A6C002A10D04B7B002B02D08024E40201E08024A4028868F8235B04184001D0802000032043904770BDC0468E
:403BC0000C0F0000FFFEFFFFC80F0000880F0000080F0000FFFFFEFF0000101070B505000C002423CB5C002B10D1CB6A002B0DD14B6C002B01D008209847E36A5A425341EA
:403C0000DBB22422A354233A314BEA502423E35C002B16D06378002B06D02B681B0501D5802202E0402200E00122FF212800FFF74FFE236BC0182063226A082313432362BC
:403C400044E0E26A012A13D96378002B01D0013A00E00122A16A2800FFF704FE236BC3182363E36A1B1AE362A36A9C466044A06282239B00EB58DB05DB0D802B26D0E36AF9
:403C8000012B23D101F0EDFEA36A1A7890239B00EA50F8231B014026EE50EB5801F0E5FE236B013323630023E362A36A0133A362074BEE506378002B08D0226A0223134384
:403CC0002362636C002B01D00420984770BDC046880F000070B505000C004A68A8235B039A4203D1C0235B034B6059E04A68A0235B039A4254D14A69012A13D94B78002B35
:403D000001D0013A00E0012221692800FFF7AAFDA369C318A36163691B1A636123699C466044206182239B00EB58DB05DB0D802B15D06369012B12D101F093FE23691A788C
:403D400090239B00EA50F8231B014022EA50EB5801F08BFEA3690133A361002363616369002B1DD1237B002B06D040220D4BEA50A8235B03636005E000220A4BEA50B02333
:403D80005B0363606378002B0AD0A368802292021343A360636C002B02D080204002984770BDC046880F000070B504000D008A6C002A2ED00368DB0305D5504BC3585B0683
:403DC00003D5022002E0002000E00020236E1B0506D44A4BE35880210B4000D001231843002818D09047FC231B010122E250E358002809D1F4231B010F32E250E358D222A8
:403E0000FF323F4BE25007E0C222FF323C4BE25002E0002000E0002081239B00E258802149020A43E250E158364A0A40E250E358002801D1012300E00223E36600285CD1C9
:403E4000636E10261E406B6C002B05D0002E01D0013000E002209847002E0DD02A4B6B602B6A012213432B626B6B2B6300212423E954264BE25040E0254B6B602A6A102341
:403E800013432B620122234BE2502B78002B1AD0EB6B002B19D0236E8022920113432366ED6B802D05D92B00803B802B0FD8813D0EE0013D236E8022120213432366002208
:403EC000144BE25004E0002502E0002500E03F2523681B0501D5802300E040239D4204D3A32189000C4801F0F3FCC1229200A358FF218B430D401D43A55070BD4C0F0000B7
:403F0000480F0000FFFFFEFF02100000880F000001100000C80F0000E40B011070B505000C004B6888225203934204D09022520393421DD06BE0D0239B00C3580A6913705A
:403F40008B6901338B614B69013B4B61002B05D00B6901330B610423836658E00B7B002B02D0C0235B0301E0B0235B0363604EE04A690969FFF734FCA369C318A36163696C
:403F80001B1A63612269944660442061012B24D82A6E1F4B13402B666369012B16D12B681B0501D5802300E04023002B04D1A3218900184801F08CFCC1229200AB58FF2164
:403FC0008B43AB5088235B03636020E00022124BEA50B0235B03636019E0402B01D89C1E00E03F242B681B0501D5802300E040239C4204D3A3218900064801F069FCC1214E
:4040000089006A58FF239A43234013436B5070BDFFFEFFFFE40B0110C80F000070B505000C00CB6B002B53D00B78002B41D0C1239B00C358FF221A400132896BFFF7D0FB4D
:40404000236CC3182364E36B1B1AE363A26B94466044A063802B06D91A00803A802A11D8813B1C000FE02B6E8022120213432B66E36B002B01D05C1E00E000240022174BBE
:40408000EA5000E03F242B681B0501D5802300E040239C4204D3A3218900114801F018FCC12189006A58FF239A43234013436B5013E00123C3660B6CD02292008258896B0B
:4040C000CA54236C01332364E36B013BE36304E00223C3660022014BC25070BDC80F0000E40B0110F8B505000C0016000B78012B04D00A7A002A03D1002702E0002700E0E9
:404100000127002D00D1B3E0002C00D1B2E0002E00D1B1E0013BDBB2022B03D95021574801F0D6FB6378002B00D06379002B03D05121524801F0CCFB0323E356002B03DA28
:4041400052214E4801F0C4FB2379DB0703D553214A4801F0BDFB2369102B03D95421474801F0B6FBE368102B03D95521434801F0AFFB6379002B02D08021490200E0002174
:40418000E279002A02D080235B0000E000230B438022120113432B60A379002B01D1110000E0002123695A1E0F2313401943E3685A1E1201FF231A400B00134322789207CD
:4041C00013432B66002F01D02D4A01E00822FF32C0239B00EA50002F01D02A4B00E02A4B2B676378002B01D07F2200E00022C1239B00EA50E3785B00FF2213402279120403
:404200001343C4229200AB50204A80239B00EA50A378002B01D0402200E0012281239B00EA5000231A4AAB501A4AAB501A4AAB501A4AAB501A4AAB502378022B02D0D22252
:40424000FF3200E00022174BEA5063783370A378737080235B0573600023B360B36133623364F3633363F3627364B364002004E00D4802E00C4800E00B48F8BD280C0110BC
:404280000703000003002A0013102A0007010100C80E0000880E0000C80F0000880F0000080F0000480F00000120AA0070B505000C1E04D1B1218900174801F009FB2B6EED
:4042C0009B0F012B11D1154A154BE31893421AD9144A154BE318934217D9144B9C466444134B9C4213D8134814E0002C11D02A6E12090F210A402B6E1940511802312000BF
:4043000004F048FA06E00C4804E00C4802E0002000E0002070BDC046280C0110405B730020AD88FF50A9AB005059E8FF004D0EFF40555C0440420F00801A0600A08601001E
:40434000F0B55F4656464D464446F0B483B0060089460192002A03D17549764801F0B8FA4B465C1E744B9C4204D985218900714801F0AEFA336E9B0F012B0DD101993000B9
:40438000FFF794FF0700C0229200B1586B4B0B40B3506B4B3367C3E0674B9C4226D8694B99450AD8684A019B68498C466344934220D900239B46013334E0654B99450AD8F5
:4043C000644A019B64498C466344934219D900239B46013326E0614A019B61498C466344934217D900239B4601331BE000239B46013317E000239B465A4B9A461D000023EE
:4044000010E000239B46E1239B009A46C825ED00002307E001239B467C33FF339A469B25AD000023002B7AD101994F4804F0B2F907000100280004F0ADF9040003007B43FA
:404440009D4200D90134102C00D9102400230F22A2425B41DBB298463900504604F09AF905004743BA4500D90135102D00D910256119019804F08EF9070016E04346002B4A
:4044800005D00F2C0CD801340023984608E00F2D06D8013500230F22A2425B41DBB298466119019804F076F907004F4502D963191F2BE3D95B46002B09D0C0229200B358C9
:4044C000802189000B43B350284B336707E0C0229200B158194B0B40B350194B3367E31F092B03D92249234801F0F2F9326EF0239A43013C2301FF241C40144334666B1F71
:404500000B2B03D91C491B4801F0E2F9326E0F218A436B1E19400D001543356600E00027380003B03CBC90469946A246AB46F0BD13020000280C01103F420F00FFFDFFFF4D
:4045400013102A00A0860100502D19005059E8FF801A0600A043210020AD88FFC02BAF00807E25FF8813000000CA9A3B03002A008D050000680C0110AA0500008868704719
:4045800070B504000D001600002903D15549564801F09EF96B68002B02D0AB68002B03D15249514801F094F90023EB56002B03DA4F494D4801F08CF900224E4BE250736883
:4045C000DB0000D488E02B785B00FF32134001210B431A0080204002B0606B683361AB6873610023B361F3612B7B33737173F0231B011821FF31E150E35881239B00E15821
:404600000143E150E0583C490140E150E358716880235B05994205D190239B00E2500223A36609E0636E9B0601D5092300E00123A36690239B00E2503378002B29D0337BF9
:40464000002B26D17369012B23D9236E80225200134323667569802D01D8023D00E03F2523681B0501D5802300E040239D4204D3A3218900214801F02BF9C1229200A35871
:40468000FF218B430D401D43A55090235B03736015E023681B0501D5802300E04023002B04D1A3218900154801F012F9C1229200A358FF218B43A35088235B03736001F066
:4046C000D0F901220E4BE2501422FF320D4BE25001F0CBF9002000E00B48D222FF32054BE25070BDD4040000280C0110D5040000D6040000480F0000FFFFFEFFE40B011054
:40470000C80F0000080F00000220AA00F8B504000D001600002904D1B721C9004A4801F0D7F8AB68002B06D06B68002B03D14749454801F0CDF80023EB56002B03DA444948
:40474000414801F0C5F80022424BE2507368DB0074D52F787F00FF231F4080214902B1606B683361AB6873610023B361F3612A7B32737373F0231B011822FF32E250E3586E
:4047800081239B00E2580A43E250E158324A0A40E250E358726880235B059A420AD190239B00E750F8231B014022E250E3580223A36619E0636E9B0601D5092300E00123D7
:4047C000A3667369002B0CD101F04BF990239B00E750F8231B014022E250E35801F045F902E090239B00E750A0235B0373607378002B01D0402500E0012523681B0501D5AF
:40480000802300E040239D4204D3BD218900134801F05EF881229200A358FF218B432B43A35001F01EF901220D4BE2501422FF320C4BE25001F019F9002000E00A48D22266
:40484000FF32044BE250F8BD280C0110B9050000BA050000480F0000FFFFFEFFE40B0110880F0000080F00000220AA00F8B504000E003F4BC358DB0707D580235B014B6077
:40488000813BFF3B0122C250C3583A4BE5580223FF331D420ED0336AEA0502D58022520000E08022134333620022334BE25010231D430EE0EB060CD5C2239B00E358DB05D8
:4048C00007D0F36B002B04D001232C4AA3502A4AA3502B4BE358DB071AD52368DB030AD5062000F0E9FF234BE35840271F407B1E9F41FFB200E00027002F0AD131002000CD
:40490000FFF78CFBFC231B010122E250E35800E00027EB060BD5320039002000FEF7EEFFF4231B011022E250E358124BE558C0232B420DD031002000FFF736FAE8231B01B3
:404940000122E250E358F4231B01BF32E250E3580C4BE35841221A4208D031002000FFF73DF9F8231B010122E250E358F8BDC0468C0E00004C0F0000C80F0000C40F00004F
:40498000CC0F00008C0F000070B506000D00E0231B01C458A3070CD5836E002B06D0002383668B688022520413438B60C0235B036B60E30705D529003000FFF727F80423F4
:4049C0009C43230708D529003000FFF7A7FAFC231B010122F250F358630708D529003000FFF778F9F8231B010122F250F3586A68C0235B039A4203D129003000FFF760F89E
:404A00006A68B0235B039A4203D129003000FFF739F870BD10B54B68DB0202D5FFF7B4FF01E0FFF723FF10BDF8B54F464646C0B405000C0003681B0501D5802700E04027D9
:404A400080239B00EB580F261E40A26A012A1BD9636A9946E262531E98464B46002B02D04346002B03D12649264800F031FF424649462800FEF7F6FEA36A1B1AA362072E01
:404A800000D940004844606282239B00EB58DB05DB0D9F422FD0A36A012B2CD10023A362072E02D8636A1E7801E0636A1E8800F0D8FF90239B00EE50F8231B018027BF0050
:404AC000EF50EB5800F0D1FF0F4BEB580F4E1E403E430F4A134203D00E490F4800F0F8FE094BEE502268022313432360236B002B01D0012098470CBC90469946F8BDC046AA
:404B000073050000A80C0110880F0000FEFDFFFF8CF8FFFF36040000E40B0110F0B5474680B405000C0003681B0501D5802600E040267608A769E3699846002F01D0002B45
:404B400004D19921C900324800F0C2FE424639002800FEF745FE236A1B182362E3691B1AE3612ED1A368002B1ED0E3689E4201D8013E00E05E1E2B681B0501D5802300E0BA
:404B800040239E4204D3A3218900224800F0A0FEC1229200AB58FF218B430E401E43AE5001221D4BEA5002E000221B4BEA506368012293436360236B002B25D004209847E2
:404BC00022E0A169C0229200AA580F273A40072A00D940000818A0619E4215D95C1E2B681B0501D5802300E040239C4204D3A3218900084800F06CFEC12189006A58FF2366
:404C00009A43234013436B5004BC9046F0BDC046A80C0110E40B0110C80F0000F8B505000C001600002800D1BDE1002900D1BCE10B78022B03D93F21C14800F049FE637B32
:404C4000023BDBB2062B03D94021BD4800F040FEA37B002B07D0022B05D0032B03D04121B74800F035FE2123E35C012B03D94221B34800F02DFE2823E35C012B03D9432128
:404C8000AF4800F025FE2378012B06D86268083A082393429B415B4208E0A37F002B05D063685A1E062393429B415B42002B03D04521A34800F00CFEA368053B042B03D95D
:404CC00046219F4800F004FE6369FF2B03D947219B4800F0FDFDA369FF2B03D94821984800F0F6FDA37C002B0FD02378002B07D1A368092B06D1A37B002B05D0012304E02C
:404D0000012302E0012300E00023002B03D04A218B4800F0DDFD8B4B626B1A4203D04C21874800F0D5FD884BE26B1A4203D04D21834800F0CDFD2378022B02D1A37F002B46
:404D400002D063685A1E00E00022237F002B02D08021490200E00021A368082B02D880231B0100E0002319430F2313400B438022920413432B60226B2B681B0501D58023B5
:404D800000E040239A4203D362216D4800F0A0FDA26B2B681B0501D5802300E040239A4203D36321664800F093FD626A2B681B0501D5802300E040239A4203D3642160483F
:404DC00000F086FD23781B06C022920413402B64637F002B01D0402200E00022A37C002B02D08023DB0000E000231A43237C002B02D08021490000E000210A43637C002B10
:404E000002D08021890000E000210A43E36A013B1B04F020000303401343627B013A07210A4013431900A27B120130231A400B001343AB64237B002B02D08022520000E01F
:404E40000022E37B002B04D12378022B03D1013B02E0012300E00023002B02D080239B0000E000231343A268013A0F273A401343C02292009446AB50FF2260691040A36963
:404E80001A04FF2109040A400243C4239B00EA50E26A6346EB583B4003339A4201D3102A03D97A21264800F013FDE37F002B04D02378012B03D0002302E0002300E001237D
:404EC000002B02D08020400000E00020627B013A0723134001001943A27B120130231A400B0013436B64237B002B02D08021490000E00021A3685A1E0F2313400B43227860
:404F0000012A02D18022520200E00022134380229200AB50FF23226B1340C1229200AB502023E35C002B02D08022920400E000222123E35C012B09D180235B0407E0C04653
:404F4000E80C011092F4FFFF8CF8FFFF002313432822A25C012A02D18022520200E000221343FF21626A0A4013432B65A36B0B4081229200AB500F4B626B13400E4AAB50A7
:404F8000E26B0E4B13400E4AAB50002E0FD0002373603360B360F3603362F3623363094B7363002004E0084802E0074800E00020F8BDC0466D0B0000C80F000073070000F6
:404FC000880F0000EFCDAB000160AA000B694A69934202D34869181A03E0CA684869101A18187047F0B5474680B407000D0003681B0501D5802300E040235B089846C22336
:405000009B00FE58F605F60D2C6929E00134EB689C4200D100246B699C4211D12B6B002B01D0082098476B699C4209D10022204BFA50002C01D0013C14E0EB685C1E11E00C
:40504000D0239B00F958403BFB580F221340072B02D8AB68195502E06300AA68D152013E002ED3D12C61EC6829003800FFF7AEFF201A804519D9002801D0441E00E00024B2
:405080003B681B0501D5802300E040239C4204D3A3218900074800F01BFCC1229200BB58FF20834320401843B85004BC9046F0BDC80F0000E40B011070B504000D00E02396
:4050C0001B01C3581B0736D5364BC258C8239B0013400BD04A681A434A60FC221201835083580B6B002B01D0102098472D4BE3581B0508D56B688022120113436B60FC236C
:405100001B01E250E358274BE358DB0713D5EB69002B04D029002000FFF700FD06E0AB68002B03D029002000FFF75CFFFC231B010122E250E358E0231B01E3585B072FD5C4
:40514000194BE258A023DB0013400BD02A681A432A60F8221201A350A3582B6B002B01D020209847104BE358DB0708D529002000FFF75AFCF8231B010122E250E3580A4B7A
:40518000E3589B050CD50022084BE2502B6801218B432B60EA622B6B002B01D00220984770BDC046CC0F00008C0F0000880F0000134B1A683C23D35C83421DD9042904D92C
:4051C0004B1EFF3B9BB2132B18D8FF290CD91F2319400C4A0300C0339B009950D03080000423835000200AE007231940D0308000044BC150002002E0034800E00248704704
:40520000A84900080000264001004A0010B504000E4B1A683C23D35C834204D8A12149000B4800F055FB2300D0339B00094A985807231840042807D1C034A400A3581B30EB
:40524000184080235B00184310BDC046A8490008280D01100000264070B5041E03D14A494A4800F035FBB023DB00494AD358002B00DA87E0474B22689A4203D946494348DF
:4052800000F026FB23689B039B0BE279002A02D08022520400E000221343B022D2003C498B50A2883D4B9A4204D98C218900374800F00EFB22893A4B9A4203D93949334865
:4052C00000F006FBA388DB04D90C23891B04364A13400B43354A2E498B50A37A0F2B04D98E218900294800F0F3FAE37A0F2B03D92F49264800F0ECFAA289284B9A4203D9D2
:405300002C49224800F0E4FAA37A0F211940E27A1201FF2313400B43A289120226490A401343A27B1207C02189050A401343B122D20017498B50A379042B03D91F4913488B
:4053400000F0C6FA228A164B9A4204D9912189000E4800F0BDFA0E4819494558194B1D40A3791B02E022D20013402B4343504558154B1D40238A1B040B4A13402B43435039
:40538000002000E0114870BD1F020000280D011000002640FFFF030029020000FF1F0000FF010000310200000000FF0184050000390200003A02000000FF1F0043020000BA
:4053C0008C050000FFF8FFFFFFFF00FE03004A0070B505003149324A8B588020000603438B502C0003E0012000F066FA013CB223DB002A4AD3585B0701D4002CF3D1274971
:40540000B122D2008858274B03408020800503438B50002D01D0002C0CD02049B022D2008B588020000603438B5003E0012000F043FA013CB223DB00184AD358DB0701D4CD
:40544000002CF3D1002D01D0002C08D01349B122D2008B58C020800503438B5013E00F4BB121C90058580F4A02408020800502435A5008395A58520052085A5008495A583D
:40548000520052085A50002D03D0002C03D0002002E0002000E0044870BDC046000026408C050000FFFFFFCF02004A00F0B5564CA04200D9A2E0A24200D9A1E0534B9942CC
:4054C00000D99FE00124524B1C70FF2805D80F2505400E340F26072321E04E4B984205D80F2303400F240026002518E0040A0F2323401D00484B984208D80001FF23184024
:405500002B000343FF240026002508E00402F020000120402B000343404C00260025FF2A0DD81201FF2002401543E020C0021843F0231E43F0231B0323439C4625E035487F
:40554000824207D81004F022120310401843224394461AE0100A0004F0273F03384018432D4B9A4209D81205F0231B0413401843FF231B0423439C4607E01206F0231B0538
:405580001A401043264B23439C46264B1A68176AB023D45AE200131BFB181B68002BF4DA1B4B5B78002B04D01F4B204AD358002B18DA1F4A1F4B1A601F4A204B1A601B4A1D
:4055C000A324E4001359B3431D4315511C4C13596546AB43184310510D4B5960124BD150002000E017480F4B1A68146AB023D15ACA00531AE31800225A6004E0114802E03C
:40560000104800E00F48F0BD0F060000FFFFFF00403A0008FF040000FF0500000F0F000000000F0FA84900081C050000000026401F1F0000080126403D3D00000401264045
:405640001405000001004A0070B50022264B1A70264B1C68226AB023E55AEC00631BD3181C68002CF4DA224A1468224A944206D1214A1468214A944203D0002502E00025F6
:4056800000E00125A422D2001D4CA4582402240A00225A60002D24D0002C23D000280FD1114B58680A000023002103F081FA6208002380185941220003F05AFA040011E07A
:4056C0000A0000232000002103F072FA064B5A685408002500196941002303F049FA040000E00024200070BD403A0008A8490008080126401F1F0000040126403D3D0000CB
:405700000000264070B505000C001A4B1B6828229A5C012A15D1820807211000884327D19200AD1AED00FF20A8401B6820339A181168AC4023004B40184004004C401460CB
:4057400016E03A229B5EDBB2994203D176210A4800F0BEF8074B1B681B68072215408022120615438022920194466444A400E55070BDC046A8490008B00D011070B5040078
:405780000D000B4B9A680B4B9A420CD1002904D13821FF31084800F09BF81034054BA400E058E55003E01034A400044BE05870BD00ED00E000000008B00D01100000001044
:4057C000F0B5474680B482B0061E01914AD04368032B03D93221264800F07AF80023F05E002804DBB178FFF78DFF002400E0214C0023F15E7368002912DB88081E4FC03085
:405800008000C55903221140C900FC3290468A4095439A01434613408B402B43C35116E089B20F220A40083A92080632920013481018476803221140C900FF252A008A4046
:4058400097439A012B0013408B403B4343600B4B9A680B4B9A4206D10023F05E0199FFF78DFF00E0034C200002B004BC9046F0BDB00D01100100560000E100E000ED00E064
:405880000000000810B5040006E0084B186800F0DFF8074B9C46644480231B029C42F4D8044B1868604300F0D3F810BDE00000080080FFFFDC00000810B5034B1B785843CC
:4058C00000F0C6F810BDC046D800000801BEFEE770B50D00044C18220100200006F067F9A5610020FFF7F2FF900A0008024B1B685B6801229A607047A8490008054B80226F
:4059000012069A649B6C002B01DB002000E002487047C0460000274003004600054B8022120198585B68FF221A4202D08023DB021843704700002640FEE7C04610B50A4B88
:405940000268DA6142681A6282685A62C2689A620269DA6242691A6382695A63C2699A63FFF7EAFF10BDC046900A0008F0B5474680B4002801D0192300E064238B429B41F2
:405980005B42304D2C682268A826A45BA41822680327BA433B401A4322602C682268A45BA2181668284CA046264016602C682668AA229446A25A96193268BA43134333609D
:4059C0002A6813686546525BD3181A68444614401C60002805D010291BD921291BD8012024E0184B1B6855229A5C914215D956229A5C914213D957229A5C914211D9582208
:405A00009A5C91420FD959229B5C99420DD804200CE000200AE0022008E0002006E0012004E0022002E0032000E00520054A1268526813680F218B430343136004BC9046DD
:405A4000F0BDC046A8490008FFFCFFFF000000000230800803D001300238FCD1C046C0467047EFF3108072B6704780F31088704710B5B0235B059B899BB2002B04D0B023AB
:405A80005B059B899BB201E080235B0080225200934215D1184C23681968683A9B58C9180B680F208343963A13430B6021680C689C23CB58E318196881430A431A6019E0C9
:405AC0000D4C2368196898229B58C918B02040050A4BC2580A4B13400A681343C022920013430B60226811689C23D358CB18054A82581A6010BDC046A849000848180000EB
:405B0000FFFCFFFF4418000030B5B0235B059B899BB2002B04D0B0235B059B899BB201E080235B0080225200934215D1184C23681968683A9B58C9180B680F208343953A39
:405B400013430B6021680C689C23CB58E318196881430A431A6019E00D4D2B68196898229B58C918B0246405C12040012258094B13400A681343C022920013430B602A687A
:405B800011689C23D358CB1822581A6030BDC046A8490008FFFCFFFFB0235B059B899BB2002B04D0B0235B059B899BB201E080235B008022520093420DD1104B1B681A6899
:405BC00098215B58D21811680D4B0B40C021C9010B43136011E0094B1B68196898229B58C918084BB0225205D258074B13400A681343C022920013430B607047A8490008F8
:405C0000FF8FFFFF18180000FFFCFFFF30B5B0235B059B899BB2002B04D0B0235B059B899BB201E080235B008022520093420DD1134B1B681A6898215B58D2181168114B6F
:405C40000B408021C9010B43136018E00C4D2B68196898229B58C918B02464050A4822580A4B13400A681343C022920013430B602A6811689C23D358CB1822581A6030BD53
:405C8000A8490008FF8FFFFF4C180000FFFCFFFF10B5B0235B059B899BB2002B04D0B0235B059B899BB201E080235B0080225200934217D10020FDF75BFDB0235B055B78F4
:405CC000002B04D0B0235B055B78DBB200E02123222B03D8002803D1013004E0012002E0002000E0012010BD10B50400012803D910491148FFF7ECFD002C03D10F4B58694A
:405D0000C00F00E000200E4B1A684423D35C002B0ED0012C0CD1094B9B695B0005D4074B9B69002B03DA012002E0012000E0002010BDC04662070000F40D0110000026404E
:405D4000A849000870B504000D00154B1A684423D35C002B22D0072803D912491248FFF7B7FD0F4B1A684423D35C002B04D00F4B9B690722134000E0002321009C420DD0CB
:405D80000A4882690726B243344014438461002D04D0994202D9C820FFF78EFD70BDC046A8490008CC070000F40D01100000264030B5021E22D0C368002B21D00368002B69
:405DC00020D00579A900104BCC582300002103E0934205D019005B69002BF9D1012000E0002000280FD0002C03D1AD00064BEA5000E04A6111610023536104E0002002E050
:405E0000002000E0002030BD4C3A000810B5021E28D00479A100144BC9580B0002E0934204D05B69002BFAD1002000E00120002819D08A420DD14B69002B05D0A4000A4A74
:405E4000A35000221A610EE0A4000022064BE25009E01A69596951615A69002A03D01B69136100E0002010BD4C3A000830B585B004000D00022807D9042805D0032803D034
:405E80002A492B48FFF724FD6B1EDBB2012B07D9042D05D0082D03D026492548FFF718FDA400254BE458042D13D0012D1CD112E0A3682B420BD1E3681A6802925B68019351
:405EC0000393290002A8236898471B4B5C61646902E0002000E00020002C24D0174B9842E6D1012DE4D11EE0022D01D104E01C006369002BFBD104E00F4B5C69002C00D026
:405F0000246900200DE0A3682B4209D1E3681A6802925B6801930393290002A8236898472469002CEFD105B030BDC046B2090000F40D0110B30900004C3A0008FF00420071
:405F400070B50500012804D9E02149001B48FFF7BFFC1B4B1B68002B05D001210020FFF785FF040000E00024002C20D1FFF779FD0600134B1B68002B03D004210020FFF73D
:405F800075FF104A136904218B431361012D01D030BF00E020BF3000FFF767FD084B1B68002B09D008210020FFF760FF04E002210020FFF75BFF044C200070BDF40D01105B
:405FC0004C3A000800ED00E0FF00420010B5FFF748FD074B5A6807490A40E824A40122435A605A68114059605B68FFF73EFD10BD00002640FF00FC0FF8B50700012803D9D1
:406000003D493E48FFF764FCB0235B055B78002B04D0B0235B055B78DBB200E021239DB2B0235B059B899BB2002B04D0B0235B059E89B6B201E0802676000020FDF798FBEA
:40604000002814D180235B009E4212D1222D12D82B4B1B685C682B4821582B4B19403B068022520413400B432350002404E0274C02E0264C00E0254C80235B009E4201D184
:40608000222D03D880235B009E4232D01C4B1A683123D35C002B04D1C421FF311C48FFF717FC174B1B681D6A80235B009E4203D1002F05D0174A06E0002F03D0164A02E03B
:4060C000164A00E0164A01212800FDF707F800280FD10B4B1A68B423D3585B191B68002BF7DBEB681B0E1B06A0221206934200D100242000F8BDC0464C0A0000F40D011069
:40610000A849000818F00000FFFFFFFE04004200240A0110010100300300000C010000300100000C70B50400022805D0052803D020492148FFF7CCFBFFF7AAFD002836D0DD
:40614000FFF78FFC0600022C07D10120FFF754FF051E0FD1FFF78CFC0CE018494B6907229343043A13434B613420FFF7A5FBFFF74DFD0025002D16D110494B6907229343F8
:406180001A000723234013434B61022C02D1FFF703FD08E09120FFF78FFBFFF7B5FC0020FFF72AFF05003000FFF75FFC00E0044D280070BD02070000F40D011000002640B3
:4061C00003004200F8B50500012804D9822109012948FFF77DFBFFF75BFD002849D0FFF740FC0700002D11D10021244B244AD150E823DB00B0225205D65CF6B20120FFF720
:40620000FBFE041E19D1FFF733FC16E0B02252051C4BD0581A4B194958501B49565CF6B21A481A581F218A4314390A431A500320FFF742FBFFF7EAFC0024002C15D11049B3
:40624000124A8B581F20834306401E438E50002D02D1FFF7A1FC08E00720FFF72DFBFFF753FC0020FFF7C8FE04003800FFF7FDFB00E0074C2000F8BDF40D0110307F000081
:406280000000264010180000410700001CFF000003004200042805D10B4A116804230B4313600FE0094B1A681168A023D358CB180006C022920410401860034A13680421AE
:4062C0008B4313607047C04610E000E0A84900080749C02252008B589B009B088020C00503438B508B588020000603438B50704700002640014B18607047C046A84900086B
:40630000F8B54F464646C0B407000E00002803D13A217A48FFF7DCFA002E03D13B217748FFF7D6FA002F00D1E0E0002E00D1DFE0734B32681A4203D04A217048FFF7C8FA5E
:40634000704B72681A4203D04B216C48FFF7C0FA6D4BB2681A4203D04C216848FFF7B8FA694BF2681A4203D04D216448FFF7B0FA337D032B03D94E216048FFF7A9FA634BB4
:40638000B2699A4203D94F215C48FFF7A1FAF36D072B03D950215948FFF79AFA5B4B326E9A4203D951215548FFF792FA574B726E9A4203D952215148FFF78AFA80231B0648
:4063C000726813437B60B3683B61F3687B613369BB61337D9B07FB61B3693B62E0231B0132681A409046042372681A409146002433E02500A31D9B00F3185A68444B1A42FB
:4064000003D063213D48FFF763FAAB1D9B00F3182A00203292005968D1515A683D4B1A420BD1E0231B01984507D14B46002B04D06B003949394A995203E06B000021374A9D
:406440009952716F364BC818490002F02DFA00B2AD00344BE8500134E4B20F2CC9D986239B00F26DFA50083BF26DFA501833326EFA50083B326EFA501833726EFA50083BDD
:40648000726EFA50C13BFF3BF35C002B19D0264BB26E9A4203D982211848FFF719FA234BF26E1A4203D083211448FFF711FA1E4AC1239B00FA50043BB26EFA504433F26E15
:4064C000FA50F0231B01FB583F2B04D0F0231B01FB58002B03D10B22F0231B01FA5033688022920313433B60002002E0104800E00F480CBC90469946F8BDC046A40F01101B
:406500000811DF0001FE302000FC00FCFFFF000088CA887E0001000100F8FFFFAC49000800007102CC490008FFFFFF3F00FF30FF0100060070B505000C00002803D1B521C8
:406540001848FFF7C5F9002D28D000232B606B60154A2A616A61AB61EB612B6206E01A0020329200002151510133DBB20F2BF6D9002386229200AB501032AB501032AB508C
:40658000002C0DD0094AC1239B00EA500023D0229200AB500432AB50002002E0044800E0002070BDA40F011003000300FFFFFF3F0100060010B50368002B0CDBA8239B00C3
:4065C000C358002BFADB036880221206134303600220FFF771F910BD70B505000C00012904D97221FF310748FFF772F9012C05D16B688022520213436B6001E001236B62E4
:4066000070BDC046A40F011070B504000D00012904D9F02149001448FFF75AF984239B00E35801221340012D07D00CE084239B00E35801210B40013A00E00C4A002B03D1E9
:40664000002AF3D100E0094A012B06D184239B000122E250E358002004E0002A01D1044800E0044870BDC046A40F011055555501020006000300060070B505000C000F2936
:4066800004D9952189000848FFF722F90F2C07D82034A4006259054B1A4203D0002002E0002000E0012070BDA40F01100001000170B505000C000F2903D90F490F48FFF70C
:4066C00007F90F2C12D821002800FFF7D5FF01235840C0B2002804D06B681B0708D4002009E06B685B0705D4002004E0002002E0012000E0012070BD22020000A40F011013
:4067000070B505000C000F2903D907490748FFF7DFF80F2C05D86034A40060590004000C00E0002000B270BD7B020000A40F0110F8B506000C0015000F2903D91A491B48BC
:40674000FFF7C6F80F2C2CD873681B0623D4230020339B009B595B051DD573681B0907221340013301279F407368DB0502D4102F00D9102721003000FFF79AFF002805D168
:40678000A8B2390002F006F805B204E039B2280002F08AF805B26400054BE05A00B22D1A2DB22800F8BDC0467B030000A40F0110AC49000870B505000C0016000F2904D934
:4067C000F72189001048FFF783F80F2C17D86B689B0716D4320021002800FFF7A9FF03F0CBF80A4902F02EFE051CA400084BE05803F0C2F8011C281C02F05AFC02E00020BE
:4068000000E0002070BDC046A40F011000002041CC49000870B5060014001D00002903D00E490F48FFF754F80E4B9C4203D90E490B48FFF74DF8012D04D99421C9000848CA
:40684000FFF746F8012D05D1C0229200B3581C43B45002E0C1239B00F45070BD9E040000A40F0110FFFFFF3F9F04000070B504000D0016000D4B194203D00D490D48FFF774
:4068800027F8012E03D90C490A48FFF721F8012E05D1D1229200A3581D43A55004E0D1229200A358AB43A35070BDC04600FF30FFED040000A40F0110EE04000070B50D009F
:4068C0000F4B184300040F4BD861FA24A40003E0013C0120FEF7F0FF0A4B1B6CDB0701D4002CF5D1002C08D0064B196C01220A431A64DB6A2B80002000E0034870BDC046AA
:406900000080FFFF00003C400400160010B500040E4B184001430E4BD961FA24A40003E0013C0120FEF7C8FF094B1B6CDB0701D4002CF5D1002C06D0054A116C01230B436F
:406940001364002000E0034810BDC0460000FF7F00003C4004001600F0B583B006000A24C02149017548FFF7D1FF002804D16B46991D7248FFF7A2FF002C01D0013C00E0E5
:406980006F48002805D16B46DA88C0235B019A42E6D1002825D16B46991D6A48FFF78EFF00281ED16B4606331B885B0519D40A248021C9006348FFF7A9FF002804D16B4603
:4069C000991D6048FFF77AFF002C01D0013C00E05B48002805D16B46DA888023DB009A42E6D1002804D16B46991D5748FFF766FF002844D16B4606331B883F229343B27862
:406A0000012A15D1F178012904D88FB20222D21B95B201E000250227402213439BB2302213436A46D380494BCB40494A136013E0F178002904D18FB20122D21B95B201E0E6
:406A40000025012740229343102213436A46D380404BCB403E4A13606B469C1DD9883943D9803948FFF752FFF378DB1B03221340AA0092B213432380374A38498B50B0239D
:406A80005B055B78002B04D0B0235B055B78DBB200E02123212B4FD0314BB0225205D35A9BB2002B48D0002804D16B46991D2D48FFF704FF002824D16B469A1DDB886021E5
:406AC0008B4318001380B0256D05254C2B5B60310B405B08034324490B401380295BC901F020C00001400B43204919401180285BC0239B000340DB00194311801948FFF7AC
:406B000005FF002804D16B46991D1948FFF7D6FE002811D16B469A1DD988C023994311800F4BB0204005C05A302303409B00194311800F48FFF7EAFE03B0F0BD021E000043
:406B400004001600031E0000091E00000048E801C40000080024F40064F0010000003C4016180000071E00007FF5FFFFFFE7FFFF061E000070B50C004000084901430848AA
:406B8000FFF7C4FE051E04D106490748FFF7BEFE05006001FEF790FE280070BD01100000081E0000376800000F1E00000349044A8858102303438B507047C04600003C408D
:406BC00070F00100F0B59DB013A9144B0A00180070C870C270C870C270C870C20AAD28001A002432D0CAD0C0D0CAD0C0D0CAD0C001AC22004833C1CBC1C2C1CBC1C2C1CB06
:406C0000C1C20748FCF7DCF929000648FCF7D8F921000548FCF7D4F91DB0F0BDE00F0110000132408001324000023240F8B5051E00D1DDE0734B5B689B0301D5FFF7C6F9F5
:406C4000714C03E0013C0120FEF736FE6F4B704AD358002B01D0002CF4D16E4B6C4AD358DB0704D56C4BD358DB0700D5C2E0674B674AD358002B00D0BEE0FFF7A3FF644B63
:406C80006649674A99502A78A02109030A4365495A506549654A9950802252009B58DB0700D5ABE0624B1B6F1B0709D4614B1868614B984206D9190001F06CFD013802E0B3
:406CC000012000E00020524B1B68002803D040035A4A104300E05A4818434D4B1860494B5B695B0017D501210320FFF72BF8454B5B699B0F01221340524A116844228A5C5F
:406D0000002A0ED0002B0CD03E4A93698021C9050B43936105E03E494B4A8858032303438B503B4C3B4AA658484B3343A3504020FEF7C2FD464BE358DB070BD42700444C89
:406D400001233B514020FEF7B7FD03233B514020FEF7B2FD3F4F37403F4E3E432D4B2C4AD650FA24E40003E0013C0120FEF7A4FD3A4B3B4AD358DB0601D4002CF4D1002C9C
:406D800001D0002400E0374C002C23D12049364A8858082303438B500120FEF7A5FF002801D1324E3E43324B1E4001231E43194B174AD650144E03E0013E0120FEF77CFD33
:406DC000154B134AD358DB0701D4002EF4D1002E00D1244C002C03D12800FFF7BDFD0400002C0CD168782978FFF7C4FE040006E0204C04E0204C02E01F4C00E01F4C200016
:406E0000F8BDC04600002640F07E0E006CF0010000003C40A0F00100B4F0010006000001A4F00100A8F0010001000100ACF0010000F03D40CC00000800093D00041A0080AD
:406E4000040A0080A8490008C4F0010030000300B0F00100EFFFFEFF2000020010400000000032400400160068F0010028000200FFFFFBFF01001600030016000200160056
:406E8000014B18687047C046C400000810B5002405E02000FEF7BAF9032804D00134042CF7D9002000E0012010BDC046A023DB00064AD35803221340012B03D0032B03D12D
:406EC000012002E0012000E0002070470000264070B5012902D0082944D049E0294B1B78012B47D00320FCF74BFA274B984243D0FFF7CCFF012841D002200BF0D2FD0500D2
:406F0000FEF7AFFD214B18602CF048FF0400062817D0022D0AD1022019F07AFC032C01D0052C10D1002810D0194C13E0012019F06FFC022C0BD000280BD1FFF701F8144C42
:406F400008E0002406E0124C04E0002402E0104C00E00F4C0E4B9C4211D10C4B1868FEF784FD0CE0094B1868FEF77FFD002406E0074C04E0064C02E0054C00E0044C200093
:406F800070BDC046104A000801018800843A0008FF00420010B50248FEF738FF10BDC046F400000810B5002817D00D4B5860C36A002B01D00A4A936000240A4B1C700A4BF3
:406FC0001C700A4B1C600A4B1C7000F0C9FB094B1C70094B1C70002000E0084810BDC046843A0008244A0008284A00082C4A0008294A00080F4A0008144A0008010016002F
:4070000030B59BB015AD14223049280003F0E9FF02AC4C220021200003F0ECFF2C4B0293A5602C4BA3810523A3732B4B5B681B6923612A4B63611B2323836383183B237756
:40704000013363770233A3770A33E3772022A3540132A35451323433E252713A0433E2541F48FEF7A5FE0BF016FD08A80BF07EFD002828D11B4B0393174B5B68996B0029E1
:4070800004D022222A30684403F0ABFF02A80BF015FD002814D10122134B1A700023134A1370134A13700C4B5B681A6A00929B6ADB886A4693800823D380684613F090FB4E
:4070C00000220C4B1A601BB030BDC0464C100110357D001010290000843A000896100000F4000008CC0A0008104A0008184A0008194A00082C4A0008014B024AD05070470D
:4071000078F0010000003C40002803D0024BD860002000E001487047843A00080100160010B520F0FFFA044B1B68002B02D0002800D0984710BDC046903A000810B5002807
:4071400009D0FA23FF33994207D80A00044903F048FF002002E0034800E0024810BDC0460708001601001600F0B55F4656464D464446F0B4B14CA54481460E009046059346
:407180000B00AF4A914204D942468A18AD498A4211D9AD4A934204D94246B218AB498A4209D9AB4A934200D823E14346F318A94A934200D922E1A84B5B695B0010D5A64BE2
:4071C0005B6907241C40022C25D10520FEF7AAFF0190A24B9842F8D003940123049324E09F4B9D4AD3581F221A40E823DB00B0214905CB5C9B1A5A1E9341DBB20493002BD4
:407200000FD10120FEF7DEFF944B9842F9D001900523039309E00394012304930023019303E005230393002301938E4B019A9A4204D1D621FF318C48FEF74AFBF0231B06D2
